{
	"contracts/NFTCollection.sol": {
		"NFTCollection": {
			"abi": [
				{
					"inputs": [],
					"stateMutability": "nonpayable",
					"type": "constructor"
				},
				{
					"anonymous": false,
					"inputs": [
						{
							"indexed": true,
							"internalType": "uint256",
							"name": "tokenId",
							"type": "uint256"
						},
						{
							"indexed": false,
							"internalType": "string",
							"name": "uri",
							"type": "string"
						}
					],
					"name": "URIAdded",
					"type": "event"
				},
				{
					"inputs": [],
					"name": "getAllURIs",
					"outputs": [
						{
							"components": [
								{
									"internalType": "uint256",
									"name": "tokenId",
									"type": "uint256"
								},
								{
									"internalType": "string",
									"name": "uri",
									"type": "string"
								}
							],
							"internalType": "struct NFTCollection.KeyValuePair[]",
							"name": "",
							"type": "tuple[]"
						}
					],
					"stateMutability": "view",
					"type": "function"
				},
				{
					"inputs": [],
					"name": "owner",
					"outputs": [
						{
							"internalType": "address",
							"name": "",
							"type": "address"
						}
					],
					"stateMutability": "view",
					"type": "function"
				},
				{
					"inputs": [
						{
							"internalType": "uint256",
							"name": "tokenId",
							"type": "uint256"
						},
						{
							"internalType": "string",
							"name": "uri",
							"type": "string"
						}
					],
					"name": "pushURI",
					"outputs": [],
					"stateMutability": "nonpayable",
					"type": "function"
				},
				{
					"inputs": [
						{
							"internalType": "address",
							"name": "newOwner",
							"type": "address"
						}
					],
					"name": "transferOwnership",
					"outputs": [],
					"stateMutability": "nonpayable",
					"type": "function"
				},
				{
					"inputs": [
						{
							"internalType": "uint256",
							"name": "",
							"type": "uint256"
						}
					],
					"name": "uris",
					"outputs": [
						{
							"internalType": "string",
							"name": "",
							"type": "string"
						}
					],
					"stateMutability": "view",
					"type": "function"
				}
			],
			"devdoc": {
				"kind": "dev",
				"methods": {},
				"version": 1
			},
			"evm": {
				"assembly": "    /* \"contracts/NFTCollection.sol\":58:1703  contract NFTCollection {... */\n  mstore(0x40, 0x80)\n    /* \"contracts/NFTCollection.sol\":190:191  0 */\n  0x00\n    /* \"contracts/NFTCollection.sol\":170:191  uint256 totalURIs = 0 */\n  0x01\n  sstore\n    /* \"contracts/NFTCollection.sol\":627:676  constructor() {... */\n  callvalue\n  dup1\n  iszero\n  tag_1\n  jumpi\n  0x00\n  dup1\n  revert\ntag_1:\n  pop\n    /* \"contracts/NFTCollection.sol\":659:669  msg.sender */\n  caller\n    /* \"contracts/NFTCollection.sol\":651:656  owner */\n  0x00\n  dup1\n    /* \"contracts/NFTCollection.sol\":651:669  owner = msg.sender */\n  0x0100\n  exp\n  dup2\n  sload\n  dup2\n  0xffffffffffffffffffffffffffffffffffffffff\n  mul\n  not\n  and\n  swap1\n  dup4\n  0xffffffffffffffffffffffffffffffffffffffff\n  and\n  mul\n  or\n  swap1\n  sstore\n  pop\n    /* \"contracts/NFTCollection.sol\":58:1703  contract NFTCollection {... */\n  dataSize(sub_0)\n  dup1\n  dataOffset(sub_0)\n  0x00\n  codecopy\n  0x00\n  return\nstop\n\nsub_0: assembly {\n        /* \"contracts/NFTCollection.sol\":58:1703  contract NFTCollection {... */\n      mstore(0x40, 0x80)\n      callvalue\n      dup1\n      iszero\n      tag_1\n      jumpi\n      0x00\n      dup1\n      revert\n    tag_1:\n      pop\n      jumpi(tag_2, lt(calldatasize, 0x04))\n      shr(0xe0, calldataload(0x00))\n      dup1\n      0x1253c546\n      eq\n      tag_3\n      jumpi\n      dup1\n      0x62b8c735\n      eq\n      tag_4\n      jumpi\n      dup1\n      0x8da5cb5b\n      eq\n      tag_5\n      jumpi\n      dup1\n      0xda815b8e\n      eq\n      tag_6\n      jumpi\n      dup1\n      0xf2fde38b\n      eq\n      tag_7\n      jumpi\n    tag_2:\n      0x00\n      dup1\n      revert\n        /* \"contracts/NFTCollection.sol\":342:380  mapping(uint256 => string) public uris */\n    tag_3:\n      tag_8\n      0x04\n      dup1\n      calldatasize\n      sub\n      dup2\n      add\n      swap1\n      tag_9\n      swap2\n      swap1\n      tag_10\n      jump\t// in\n    tag_9:\n      tag_11\n      jump\t// in\n    tag_8:\n      mload(0x40)\n      tag_12\n      swap2\n      swap1\n      tag_13\n      jump\t// in\n    tag_12:\n      mload(0x40)\n      dup1\n      swap2\n      sub\n      swap1\n      return\n        /* \"contracts/NFTCollection.sol\":946:1112  function pushURI(uint256 tokenId, string memory uri) external onlyOwner {... */\n    tag_4:\n      tag_14\n      0x04\n      dup1\n      calldatasize\n      sub\n      dup2\n      add\n      swap1\n      tag_15\n      swap2\n      swap1\n      tag_16\n      jump\t// in\n    tag_15:\n      tag_17\n      jump\t// in\n    tag_14:\n      stop\n        /* \"contracts/NFTCollection.sol\":144:164  address public owner */\n    tag_5:\n      tag_18\n      tag_19\n      jump\t// in\n    tag_18:\n      mload(0x40)\n      tag_20\n      swap2\n      swap1\n      tag_21\n      jump\t// in\n    tag_20:\n      mload(0x40)\n      dup1\n      swap2\n      sub\n      swap1\n      return\n        /* \"contracts/NFTCollection.sol\":1414:1695  function getAllURIs() external view returns (KeyValuePair[] memory) {... */\n    tag_6:\n      tag_22\n      tag_23\n      jump\t// in\n    tag_22:\n      mload(0x40)\n      tag_24\n      swap2\n      swap1\n      tag_25\n      jump\t// in\n    tag_24:\n      mload(0x40)\n      dup1\n      swap2\n      sub\n      swap1\n      return\n        /* \"contracts/NFTCollection.sol\":1178:1345  function transferOwnership(address newOwner) external onlyOwner {... */\n    tag_7:\n      tag_26\n      0x04\n      dup1\n      calldatasize\n      sub\n      dup2\n      add\n      swap1\n      tag_27\n      swap2\n      swap1\n      tag_28\n      jump\t// in\n    tag_27:\n      tag_29\n      jump\t// in\n    tag_26:\n      stop\n        /* \"contracts/NFTCollection.sol\":342:380  mapping(uint256 => string) public uris */\n    tag_11:\n      mstore(0x20, 0x02)\n      dup1\n      0x00\n      mstore\n      keccak256(0x00, 0x40)\n      0x00\n      swap2\n      pop\n      swap1\n      pop\n      dup1\n      sload\n      tag_30\n      swap1\n      tag_31\n      jump\t// in\n    tag_30:\n      dup1\n      0x1f\n      add\n      0x20\n      dup1\n      swap2\n      div\n      mul\n      0x20\n      add\n      mload(0x40)\n      swap1\n      dup2\n      add\n      0x40\n      mstore\n      dup1\n      swap3\n      swap2\n      swap1\n      dup2\n      dup2\n      mstore\n      0x20\n      add\n      dup3\n      dup1\n      sload\n      tag_32\n      swap1\n      tag_31\n      jump\t// in\n    tag_32:\n      dup1\n      iszero\n      tag_33\n      jumpi\n      dup1\n      0x1f\n      lt\n      tag_34\n      jumpi\n      0x0100\n      dup1\n      dup4\n      sload\n      div\n      mul\n      dup4\n      mstore\n      swap2\n      0x20\n      add\n      swap2\n      jump(tag_33)\n    tag_34:\n      dup3\n      add\n      swap2\n      swap1\n      0x00\n      mstore\n      keccak256(0x00, 0x20)\n      swap1\n    tag_35:\n      dup2\n      sload\n      dup2\n      mstore\n      swap1\n      0x01\n      add\n      swap1\n      0x20\n      add\n      dup1\n      dup4\n      gt\n      tag_35\n      jumpi\n      dup3\n      swap1\n      sub\n      0x1f\n      and\n      dup3\n      add\n      swap2\n    tag_33:\n      pop\n      pop\n      pop\n      pop\n      pop\n      dup2\n      jump\t// out\n        /* \"contracts/NFTCollection.sol\":946:1112  function pushURI(uint256 tokenId, string memory uri) external onlyOwner {... */\n    tag_17:\n        /* \"contracts/NFTCollection.sol\":833:838  owner */\n      0x00\n      dup1\n      sload\n      swap1\n      0x0100\n      exp\n      swap1\n      div\n      0xffffffffffffffffffffffffffffffffffffffff\n      and\n        /* \"contracts/NFTCollection.sol\":819:838  msg.sender == owner */\n      0xffffffffffffffffffffffffffffffffffffffff\n      and\n        /* \"contracts/NFTCollection.sol\":819:829  msg.sender */\n      caller\n        /* \"contracts/NFTCollection.sol\":819:838  msg.sender == owner */\n      0xffffffffffffffffffffffffffffffffffffffff\n      and\n      eq\n        /* \"contracts/NFTCollection.sol\":811:876  require(msg.sender == owner, \"Only owner can call this function\") */\n      tag_37\n      jumpi\n      mload(0x40)\n      0x08c379a000000000000000000000000000000000000000000000000000000000\n      dup2\n      mstore\n      0x04\n      add\n      tag_38\n      swap1\n      tag_39\n      jump\t// in\n    tag_38:\n      mload(0x40)\n      dup1\n      swap2\n      sub\n      swap1\n      revert\n    tag_37:\n        /* \"contracts/NFTCollection.sol\":1044:1047  uri */\n      dup1\n        /* \"contracts/NFTCollection.sol\":1028:1032  uris */\n      0x02\n        /* \"contracts/NFTCollection.sol\":1028:1041  uris[tokenId] */\n      0x00\n        /* \"contracts/NFTCollection.sol\":1033:1040  tokenId */\n      dup5\n        /* \"contracts/NFTCollection.sol\":1028:1041  uris[tokenId] */\n      dup2\n      mstore\n      0x20\n      add\n      swap1\n      dup2\n      mstore\n      0x20\n      add\n      0x00\n      keccak256\n        /* \"contracts/NFTCollection.sol\":1028:1047  uris[tokenId] = uri */\n      swap1\n      dup2\n      tag_41\n      swap2\n      swap1\n      tag_42\n      jump\t// in\n    tag_41:\n      pop\n        /* \"contracts/NFTCollection.sol\":1057:1066  totalURIs */\n      0x01\n      0x00\n        /* \"contracts/NFTCollection.sol\":1057:1068  totalURIs++ */\n      dup2\n      sload\n      dup1\n      swap3\n      swap2\n      swap1\n      tag_43\n      swap1\n      tag_44\n      jump\t// in\n    tag_43:\n      swap2\n      swap1\n      pop\n      sstore\n      pop\n        /* \"contracts/NFTCollection.sol\":1092:1099  tokenId */\n      dup2\n        /* \"contracts/NFTCollection.sol\":1083:1105  URIAdded(tokenId, uri) */\n      0xaff9b744082235958643fec7fcd095092a1fc28ae6be37068c3bc43e0c0a8e95\n        /* \"contracts/NFTCollection.sol\":1101:1104  uri */\n      dup3\n        /* \"contracts/NFTCollection.sol\":1083:1105  URIAdded(tokenId, uri) */\n      mload(0x40)\n      tag_45\n      swap2\n      swap1\n      tag_13\n      jump\t// in\n    tag_45:\n      mload(0x40)\n      dup1\n      swap2\n      sub\n      swap1\n      log2\n        /* \"contracts/NFTCollection.sol\":946:1112  function pushURI(uint256 tokenId, string memory uri) external onlyOwner {... */\n      pop\n      pop\n      jump\t// out\n        /* \"contracts/NFTCollection.sol\":144:164  address public owner */\n    tag_19:\n      0x00\n      dup1\n      sload\n      swap1\n      0x0100\n      exp\n      swap1\n      div\n      0xffffffffffffffffffffffffffffffffffffffff\n      and\n      dup2\n      jump\t// out\n        /* \"contracts/NFTCollection.sol\":1414:1695  function getAllURIs() external view returns (KeyValuePair[] memory) {... */\n    tag_23:\n        /* \"contracts/NFTCollection.sol\":1459:1480  KeyValuePair[] memory */\n      0x60\n        /* \"contracts/NFTCollection.sol\":1492:1521  KeyValuePair[] memory allURIs */\n      0x00\n        /* \"contracts/NFTCollection.sol\":1543:1552  totalURIs */\n      sload(0x01)\n        /* \"contracts/NFTCollection.sol\":1524:1553  new KeyValuePair[](totalURIs) */\n      0xffffffffffffffff\n      dup2\n      gt\n      iszero\n      tag_47\n      jumpi\n      tag_48\n      tag_49\n      jump\t// in\n    tag_48:\n    tag_47:\n      mload(0x40)\n      swap1\n      dup1\n      dup3\n      mstore\n      dup1\n      0x20\n      mul\n      0x20\n      add\n      dup3\n      add\n      0x40\n      mstore\n      dup1\n      iszero\n      tag_50\n      jumpi\n      dup2\n      0x20\n      add\n    tag_51:\n      tag_52\n      tag_53\n      jump\t// in\n    tag_52:\n      dup2\n      mstore\n      0x20\n      add\n      swap1\n      0x01\n      swap1\n      sub\n      swap1\n      dup2\n      tag_51\n      jumpi\n      swap1\n      pop\n    tag_50:\n      pop\n        /* \"contracts/NFTCollection.sol\":1492:1553  KeyValuePair[] memory allURIs = new KeyValuePair[](totalURIs) */\n      swap1\n      pop\n        /* \"contracts/NFTCollection.sol\":1568:1577  uint256 i */\n      0x00\n        /* \"contracts/NFTCollection.sol\":1563:1665  for (uint256 i = 0; i < totalURIs; i++) {... */\n    tag_54:\n        /* \"contracts/NFTCollection.sol\":1587:1596  totalURIs */\n      sload(0x01)\n        /* \"contracts/NFTCollection.sol\":1583:1584  i */\n      dup2\n        /* \"contracts/NFTCollection.sol\":1583:1596  i < totalURIs */\n      lt\n        /* \"contracts/NFTCollection.sol\":1563:1665  for (uint256 i = 0; i < totalURIs; i++) {... */\n      iszero\n      tag_55\n      jumpi\n        /* \"contracts/NFTCollection.sol\":1630:1654  KeyValuePair(i, uris[i]) */\n      mload(0x40)\n      dup1\n      0x40\n      add\n      0x40\n      mstore\n      dup1\n        /* \"contracts/NFTCollection.sol\":1643:1644  i */\n      dup3\n        /* \"contracts/NFTCollection.sol\":1630:1654  KeyValuePair(i, uris[i]) */\n      dup2\n      mstore\n      0x20\n      add\n        /* \"contracts/NFTCollection.sol\":1646:1650  uris */\n      0x02\n        /* \"contracts/NFTCollection.sol\":1646:1653  uris[i] */\n      0x00\n        /* \"contracts/NFTCollection.sol\":1651:1652  i */\n      dup5\n        /* \"contracts/NFTCollection.sol\":1646:1653  uris[i] */\n      dup2\n      mstore\n      0x20\n      add\n      swap1\n      dup2\n      mstore\n      0x20\n      add\n      0x00\n      keccak256\n        /* \"contracts/NFTCollection.sol\":1630:1654  KeyValuePair(i, uris[i]) */\n      dup1\n      sload\n      tag_57\n      swap1\n      tag_31\n      jump\t// in\n    tag_57:\n      dup1\n      0x1f\n      add\n      0x20\n      dup1\n      swap2\n      div\n      mul\n      0x20\n      add\n      mload(0x40)\n      swap1\n      dup2\n      add\n      0x40\n      mstore\n      dup1\n      swap3\n      swap2\n      swap1\n      dup2\n      dup2\n      mstore\n      0x20\n      add\n      dup3\n      dup1\n      sload\n      tag_58\n      swap1\n      tag_31\n      jump\t// in\n    tag_58:\n      dup1\n      iszero\n      tag_59\n      jumpi\n      dup1\n      0x1f\n      lt\n      tag_60\n      jumpi\n      0x0100\n      dup1\n      dup4\n      sload\n      div\n      mul\n      dup4\n      mstore\n      swap2\n      0x20\n      add\n      swap2\n      jump(tag_59)\n    tag_60:\n      dup3\n      add\n      swap2\n      swap1\n      0x00\n      mstore\n      keccak256(0x00, 0x20)\n      swap1\n    tag_61:\n      dup2\n      sload\n      dup2\n      mstore\n      swap1\n      0x01\n      add\n      swap1\n      0x20\n      add\n      dup1\n      dup4\n      gt\n      tag_61\n      jumpi\n      dup3\n      swap1\n      sub\n      0x1f\n      and\n      dup3\n      add\n      swap2\n    tag_59:\n      pop\n      pop\n      pop\n      pop\n      pop\n      dup2\n      mstore\n      pop\n        /* \"contracts/NFTCollection.sol\":1617:1624  allURIs */\n      dup3\n        /* \"contracts/NFTCollection.sol\":1625:1626  i */\n      dup3\n        /* \"contracts/NFTCollection.sol\":1617:1627  allURIs[i] */\n      dup2\n      mload\n      dup2\n      lt\n      tag_62\n      jumpi\n      tag_63\n      tag_64\n      jump\t// in\n    tag_63:\n    tag_62:\n      0x20\n      mul\n      0x20\n      add\n      add\n        /* \"contracts/NFTCollection.sol\":1617:1654  allURIs[i] = KeyValuePair(i, uris[i]) */\n      dup2\n      swap1\n      mstore\n      pop\n        /* \"contracts/NFTCollection.sol\":1598:1601  i++ */\n      dup1\n      dup1\n      0x01\n      add\n      swap2\n      pop\n      pop\n        /* \"contracts/NFTCollection.sol\":1563:1665  for (uint256 i = 0; i < totalURIs; i++) {... */\n      jump(tag_54)\n    tag_55:\n      pop\n        /* \"contracts/NFTCollection.sol\":1681:1688  allURIs */\n      dup1\n        /* \"contracts/NFTCollection.sol\":1674:1688  return allURIs */\n      swap2\n      pop\n      pop\n        /* \"contracts/NFTCollection.sol\":1414:1695  function getAllURIs() external view returns (KeyValuePair[] memory) {... */\n      swap1\n      jump\t// out\n        /* \"contracts/NFTCollection.sol\":1178:1345  function transferOwnership(address newOwner) external onlyOwner {... */\n    tag_29:\n        /* \"contracts/NFTCollection.sol\":833:838  owner */\n      0x00\n      dup1\n      sload\n      swap1\n      0x0100\n      exp\n      swap1\n      div\n      0xffffffffffffffffffffffffffffffffffffffff\n      and\n        /* \"contracts/NFTCollection.sol\":819:838  msg.sender == owner */\n      0xffffffffffffffffffffffffffffffffffffffff\n      and\n        /* \"contracts/NFTCollection.sol\":819:829  msg.sender */\n      caller\n        /* \"contracts/NFTCollection.sol\":819:838  msg.sender == owner */\n      0xffffffffffffffffffffffffffffffffffffffff\n      and\n      eq\n        /* \"contracts/NFTCollection.sol\":811:876  require(msg.sender == owner, \"Only owner can call this function\") */\n      tag_66\n      jumpi\n      mload(0x40)\n      0x08c379a000000000000000000000000000000000000000000000000000000000\n      dup2\n      mstore\n      0x04\n      add\n      tag_67\n      swap1\n      tag_39\n      jump\t// in\n    tag_67:\n      mload(0x40)\n      dup1\n      swap2\n      sub\n      swap1\n      revert\n    tag_66:\n        /* \"contracts/NFTCollection.sol\":1280:1281  0 */\n      0x00\n        /* \"contracts/NFTCollection.sol\":1260:1282  newOwner != address(0) */\n      0xffffffffffffffffffffffffffffffffffffffff\n      and\n        /* \"contracts/NFTCollection.sol\":1260:1268  newOwner */\n      dup2\n        /* \"contracts/NFTCollection.sol\":1260:1282  newOwner != address(0) */\n      0xffffffffffffffffffffffffffffffffffffffff\n      and\n      sub\n        /* \"contracts/NFTCollection.sol\":1252:1312  require(newOwner != address(0), \"Invalid new owner address\") */\n      tag_69\n      jumpi\n      mload(0x40)\n      0x08c379a000000000000000000000000000000000000000000000000000000000\n      dup2\n      mstore\n      0x04\n      add\n      tag_70\n      swap1\n      tag_71\n      jump\t// in\n    tag_70:\n      mload(0x40)\n      dup1\n      swap2\n      sub\n      swap1\n      revert\n    tag_69:\n        /* \"contracts/NFTCollection.sol\":1330:1338  newOwner */\n      dup1\n        /* \"contracts/NFTCollection.sol\":1322:1327  owner */\n      0x00\n      dup1\n        /* \"contracts/NFTCollection.sol\":1322:1338  owner = newOwner */\n      0x0100\n      exp\n      dup2\n      sload\n      dup2\n      0xffffffffffffffffffffffffffffffffffffffff\n      mul\n      not\n      and\n      swap1\n      dup4\n      0xffffffffffffffffffffffffffffffffffffffff\n      and\n      mul\n      or\n      swap1\n      sstore\n      pop\n        /* \"contracts/NFTCollection.sol\":1178:1345  function transferOwnership(address newOwner) external onlyOwner {... */\n      pop\n      jump\t// out\n    tag_53:\n      mload(0x40)\n      dup1\n      0x40\n      add\n      0x40\n      mstore\n      dup1\n      0x00\n      dup2\n      mstore\n      0x20\n      add\n      0x60\n      dup2\n      mstore\n      pop\n      swap1\n      jump\t// out\n        /* \"#utility.yul\":7:82   */\n    tag_72:\n        /* \"#utility.yul\":40:46   */\n      0x00\n        /* \"#utility.yul\":73:75   */\n      0x40\n        /* \"#utility.yul\":67:76   */\n      mload\n        /* \"#utility.yul\":57:76   */\n      swap1\n      pop\n        /* \"#utility.yul\":7:82   */\n      swap1\n      jump\t// out\n        /* \"#utility.yul\":88:205   */\n    tag_73:\n        /* \"#utility.yul\":197:198   */\n      0x00\n        /* \"#utility.yul\":194:195   */\n      dup1\n        /* \"#utility.yul\":187:199   */\n      revert\n        /* \"#utility.yul\":211:328   */\n    tag_74:\n        /* \"#utility.yul\":320:321   */\n      0x00\n        /* \"#utility.yul\":317:318   */\n      dup1\n        /* \"#utility.yul\":310:322   */\n      revert\n        /* \"#utility.yul\":334:411   */\n    tag_75:\n        /* \"#utility.yul\":371:378   */\n      0x00\n        /* \"#utility.yul\":400:405   */\n      dup2\n        /* \"#utility.yul\":389:405   */\n      swap1\n      pop\n        /* \"#utility.yul\":334:411   */\n      swap2\n      swap1\n      pop\n      jump\t// out\n        /* \"#utility.yul\":417:539   */\n    tag_76:\n        /* \"#utility.yul\":490:514   */\n      tag_133\n        /* \"#utility.yul\":508:513   */\n      dup2\n        /* \"#utility.yul\":490:514   */\n      tag_75\n      jump\t// in\n    tag_133:\n        /* \"#utility.yul\":483:488   */\n      dup2\n        /* \"#utility.yul\":480:515   */\n      eq\n        /* \"#utility.yul\":470:533   */\n      tag_134\n      jumpi\n        /* \"#utility.yul\":529:530   */\n      0x00\n        /* \"#utility.yul\":526:527   */\n      dup1\n        /* \"#utility.yul\":519:531   */\n      revert\n        /* \"#utility.yul\":470:533   */\n    tag_134:\n        /* \"#utility.yul\":417:539   */\n      pop\n      jump\t// out\n        /* \"#utility.yul\":545:684   */\n    tag_77:\n        /* \"#utility.yul\":591:596   */\n      0x00\n        /* \"#utility.yul\":629:635   */\n      dup2\n        /* \"#utility.yul\":616:636   */\n      calldataload\n        /* \"#utility.yul\":607:636   */\n      swap1\n      pop\n        /* \"#utility.yul\":645:678   */\n      tag_136\n        /* \"#utility.yul\":672:677   */\n      dup2\n        /* \"#utility.yul\":645:678   */\n      tag_76\n      jump\t// in\n    tag_136:\n        /* \"#utility.yul\":545:684   */\n      swap3\n      swap2\n      pop\n      pop\n      jump\t// out\n        /* \"#utility.yul\":690:1019   */\n    tag_10:\n        /* \"#utility.yul\":749:755   */\n      0x00\n        /* \"#utility.yul\":798:800   */\n      0x20\n        /* \"#utility.yul\":786:795   */\n      dup3\n        /* \"#utility.yul\":777:784   */\n      dup5\n        /* \"#utility.yul\":773:796   */\n      sub\n        /* \"#utility.yul\":769:801   */\n      slt\n        /* \"#utility.yul\":766:885   */\n      iszero\n      tag_138\n      jumpi\n        /* \"#utility.yul\":804:883   */\n      tag_139\n      tag_73\n      jump\t// in\n    tag_139:\n        /* \"#utility.yul\":766:885   */\n    tag_138:\n        /* \"#utility.yul\":924:925   */\n      0x00\n        /* \"#utility.yul\":949:1002   */\n      tag_140\n        /* \"#utility.yul\":994:1001   */\n      dup5\n        /* \"#utility.yul\":985:991   */\n      dup3\n        /* \"#utility.yul\":974:983   */\n      dup6\n        /* \"#utility.yul\":970:992   */\n      add\n        /* \"#utility.yul\":949:1002   */\n      tag_77\n      jump\t// in\n    tag_140:\n        /* \"#utility.yul\":939:1002   */\n      swap2\n      pop\n        /* \"#utility.yul\":895:1012   */\n      pop\n        /* \"#utility.yul\":690:1019   */\n      swap3\n      swap2\n      pop\n      pop\n      jump\t// out\n        /* \"#utility.yul\":1025:1124   */\n    tag_78:\n        /* \"#utility.yul\":1077:1083   */\n      0x00\n        /* \"#utility.yul\":1111:1116   */\n      dup2\n        /* \"#utility.yul\":1105:1117   */\n      mload\n        /* \"#utility.yul\":1095:1117   */\n      swap1\n      pop\n        /* \"#utility.yul\":1025:1124   */\n      swap2\n      swap1\n      pop\n      jump\t// out\n        /* \"#utility.yul\":1130:1299   */\n    tag_79:\n        /* \"#utility.yul\":1214:1225   */\n      0x00\n        /* \"#utility.yul\":1248:1254   */\n      dup3\n        /* \"#utility.yul\":1243:1246   */\n      dup3\n        /* \"#utility.yul\":1236:1255   */\n      mstore\n        /* \"#utility.yul\":1288:1292   */\n      0x20\n        /* \"#utility.yul\":1283:1286   */\n      dup3\n        /* \"#utility.yul\":1279:1293   */\n      add\n        /* \"#utility.yul\":1264:1293   */\n      swap1\n      pop\n        /* \"#utility.yul\":1130:1299   */\n      swap3\n      swap2\n      pop\n      pop\n      jump\t// out\n        /* \"#utility.yul\":1305:1551   */\n    tag_80:\n        /* \"#utility.yul\":1386:1387   */\n      0x00\n        /* \"#utility.yul\":1396:1509   */\n    tag_144:\n        /* \"#utility.yul\":1410:1416   */\n      dup4\n        /* \"#utility.yul\":1407:1408   */\n      dup2\n        /* \"#utility.yul\":1404:1417   */\n      lt\n        /* \"#utility.yul\":1396:1509   */\n      iszero\n      tag_146\n      jumpi\n        /* \"#utility.yul\":1495:1496   */\n      dup1\n        /* \"#utility.yul\":1490:1493   */\n      dup3\n        /* \"#utility.yul\":1486:1497   */\n      add\n        /* \"#utility.yul\":1480:1498   */\n      mload\n        /* \"#utility.yul\":1476:1477   */\n      dup2\n        /* \"#utility.yul\":1471:1474   */\n      dup5\n        /* \"#utility.yul\":1467:1478   */\n      add\n        /* \"#utility.yul\":1460:1499   */\n      mstore\n        /* \"#utility.yul\":1432:1434   */\n      0x20\n        /* \"#utility.yul\":1429:1430   */\n      dup2\n        /* \"#utility.yul\":1425:1435   */\n      add\n        /* \"#utility.yul\":1420:1435   */\n      swap1\n      pop\n        /* \"#utility.yul\":1396:1509   */\n      jump(tag_144)\n    tag_146:\n        /* \"#utility.yul\":1543:1544   */\n      0x00\n        /* \"#utility.yul\":1534:1540   */\n      dup5\n        /* \"#utility.yul\":1529:1532   */\n      dup5\n        /* \"#utility.yul\":1525:1541   */\n      add\n        /* \"#utility.yul\":1518:1545   */\n      mstore\n        /* \"#utility.yul\":1367:1551   */\n      pop\n        /* \"#utility.yul\":1305:1551   */\n      pop\n      pop\n      pop\n      jump\t// out\n        /* \"#utility.yul\":1557:1659   */\n    tag_81:\n        /* \"#utility.yul\":1598:1604   */\n      0x00\n        /* \"#utility.yul\":1649:1651   */\n      0x1f\n        /* \"#utility.yul\":1645:1652   */\n      not\n        /* \"#utility.yul\":1640:1642   */\n      0x1f\n        /* \"#utility.yul\":1633:1638   */\n      dup4\n        /* \"#utility.yul\":1629:1643   */\n      add\n        /* \"#utility.yul\":1625:1653   */\n      and\n        /* \"#utility.yul\":1615:1653   */\n      swap1\n      pop\n        /* \"#utility.yul\":1557:1659   */\n      swap2\n      swap1\n      pop\n      jump\t// out\n        /* \"#utility.yul\":1665:2042   */\n    tag_82:\n        /* \"#utility.yul\":1753:1756   */\n      0x00\n        /* \"#utility.yul\":1781:1820   */\n      tag_149\n        /* \"#utility.yul\":1814:1819   */\n      dup3\n        /* \"#utility.yul\":1781:1820   */\n      tag_78\n      jump\t// in\n    tag_149:\n        /* \"#utility.yul\":1836:1907   */\n      tag_150\n        /* \"#utility.yul\":1900:1906   */\n      dup2\n        /* \"#utility.yul\":1895:1898   */\n      dup6\n        /* \"#utility.yul\":1836:1907   */\n      tag_79\n      jump\t// in\n    tag_150:\n        /* \"#utility.yul\":1829:1907   */\n      swap4\n      pop\n        /* \"#utility.yul\":1916:1981   */\n      tag_151\n        /* \"#utility.yul\":1974:1980   */\n      dup2\n        /* \"#utility.yul\":1969:1972   */\n      dup6\n        /* \"#utility.yul\":1962:1966   */\n      0x20\n        /* \"#utility.yul\":1955:1960   */\n      dup7\n        /* \"#utility.yul\":1951:1967   */\n      add\n        /* \"#utility.yul\":1916:1981   */\n      tag_80\n      jump\t// in\n    tag_151:\n        /* \"#utility.yul\":2006:2035   */\n      tag_152\n        /* \"#utility.yul\":2028:2034   */\n      dup2\n        /* \"#utility.yul\":2006:2035   */\n      tag_81\n      jump\t// in\n    tag_152:\n        /* \"#utility.yul\":2001:2004   */\n      dup5\n        /* \"#utility.yul\":1997:2036   */\n      add\n        /* \"#utility.yul\":1990:2036   */\n      swap2\n      pop\n        /* \"#utility.yul\":1757:2042   */\n      pop\n        /* \"#utility.yul\":1665:2042   */\n      swap3\n      swap2\n      pop\n      pop\n      jump\t// out\n        /* \"#utility.yul\":2048:2361   */\n    tag_13:\n        /* \"#utility.yul\":2161:2165   */\n      0x00\n        /* \"#utility.yul\":2199:2201   */\n      0x20\n        /* \"#utility.yul\":2188:2197   */\n      dup3\n        /* \"#utility.yul\":2184:2202   */\n      add\n        /* \"#utility.yul\":2176:2202   */\n      swap1\n      pop\n        /* \"#utility.yul\":2248:2257   */\n      dup2\n        /* \"#utility.yul\":2242:2246   */\n      dup2\n        /* \"#utility.yul\":2238:2258   */\n      sub\n        /* \"#utility.yul\":2234:2235   */\n      0x00\n        /* \"#utility.yul\":2223:2232   */\n      dup4\n        /* \"#utility.yul\":2219:2236   */\n      add\n        /* \"#utility.yul\":2212:2259   */\n      mstore\n        /* \"#utility.yul\":2276:2354   */\n      tag_154\n        /* \"#utility.yul\":2349:2353   */\n      dup2\n        /* \"#utility.yul\":2340:2346   */\n      dup5\n        /* \"#utility.yul\":2276:2354   */\n      tag_82\n      jump\t// in\n    tag_154:\n        /* \"#utility.yul\":2268:2354   */\n      swap1\n      pop\n        /* \"#utility.yul\":2048:2361   */\n      swap3\n      swap2\n      pop\n      pop\n      jump\t// out\n        /* \"#utility.yul\":2367:2484   */\n    tag_83:\n        /* \"#utility.yul\":2476:2477   */\n      0x00\n        /* \"#utility.yul\":2473:2474   */\n      dup1\n        /* \"#utility.yul\":2466:2478   */\n      revert\n        /* \"#utility.yul\":2490:2607   */\n    tag_84:\n        /* \"#utility.yul\":2599:2600   */\n      0x00\n        /* \"#utility.yul\":2596:2597   */\n      dup1\n        /* \"#utility.yul\":2589:2601   */\n      revert\n        /* \"#utility.yul\":2613:2793   */\n    tag_49:\n        /* \"#utility.yul\":2661:2738   */\n      0x4e487b7100000000000000000000000000000000000000000000000000000000\n        /* \"#utility.yul\":2658:2659   */\n      0x00\n        /* \"#utility.yul\":2651:2739   */\n      mstore\n        /* \"#utility.yul\":2758:2762   */\n      0x41\n        /* \"#utility.yul\":2755:2756   */\n      0x04\n        /* \"#utility.yul\":2748:2763   */\n      mstore\n        /* \"#utility.yul\":2782:2786   */\n      0x24\n        /* \"#utility.yul\":2779:2780   */\n      0x00\n        /* \"#utility.yul\":2772:2787   */\n      revert\n        /* \"#utility.yul\":2799:3080   */\n    tag_85:\n        /* \"#utility.yul\":2882:2909   */\n      tag_159\n        /* \"#utility.yul\":2904:2908   */\n      dup3\n        /* \"#utility.yul\":2882:2909   */\n      tag_81\n      jump\t// in\n    tag_159:\n        /* \"#utility.yul\":2874:2880   */\n      dup2\n        /* \"#utility.yul\":2870:2910   */\n      add\n        /* \"#utility.yul\":3012:3018   */\n      dup2\n        /* \"#utility.yul\":3000:3010   */\n      dup2\n        /* \"#utility.yul\":2997:3019   */\n      lt\n        /* \"#utility.yul\":2976:2994   */\n      0xffffffffffffffff\n        /* \"#utility.yul\":2964:2974   */\n      dup3\n        /* \"#utility.yul\":2961:2995   */\n      gt\n        /* \"#utility.yul\":2958:3020   */\n      or\n        /* \"#utility.yul\":2955:3043   */\n      iszero\n      tag_160\n      jumpi\n        /* \"#utility.yul\":3023:3041   */\n      tag_161\n      tag_49\n      jump\t// in\n    tag_161:\n        /* \"#utility.yul\":2955:3043   */\n    tag_160:\n        /* \"#utility.yul\":3063:3073   */\n      dup1\n        /* \"#utility.yul\":3059:3061   */\n      0x40\n        /* \"#utility.yul\":3052:3074   */\n      mstore\n        /* \"#utility.yul\":2842:3080   */\n      pop\n        /* \"#utility.yul\":2799:3080   */\n      pop\n      pop\n      jump\t// out\n        /* \"#utility.yul\":3086:3215   */\n    tag_86:\n        /* \"#utility.yul\":3120:3126   */\n      0x00\n        /* \"#utility.yul\":3147:3167   */\n      tag_163\n      tag_72\n      jump\t// in\n    tag_163:\n        /* \"#utility.yul\":3137:3167   */\n      swap1\n      pop\n        /* \"#utility.yul\":3176:3209   */\n      tag_164\n        /* \"#utility.yul\":3204:3208   */\n      dup3\n        /* \"#utility.yul\":3196:3202   */\n      dup3\n        /* \"#utility.yul\":3176:3209   */\n      tag_85\n      jump\t// in\n    tag_164:\n        /* \"#utility.yul\":3086:3215   */\n      swap2\n      swap1\n      pop\n      jump\t// out\n        /* \"#utility.yul\":3221:3529   */\n    tag_87:\n        /* \"#utility.yul\":3283:3287   */\n      0x00\n        /* \"#utility.yul\":3373:3391   */\n      0xffffffffffffffff\n        /* \"#utility.yul\":3365:3371   */\n      dup3\n        /* \"#utility.yul\":3362:3392   */\n      gt\n        /* \"#utility.yul\":3359:3415   */\n      iszero\n      tag_166\n      jumpi\n        /* \"#utility.yul\":3395:3413   */\n      tag_167\n      tag_49\n      jump\t// in\n    tag_167:\n        /* \"#utility.yul\":3359:3415   */\n    tag_166:\n        /* \"#utility.yul\":3433:3462   */\n      tag_168\n        /* \"#utility.yul\":3455:3461   */\n      dup3\n        /* \"#utility.yul\":3433:3462   */\n      tag_81\n      jump\t// in\n    tag_168:\n        /* \"#utility.yul\":3425:3462   */\n      swap1\n      pop\n        /* \"#utility.yul\":3517:3521   */\n      0x20\n        /* \"#utility.yul\":3511:3515   */\n      dup2\n        /* \"#utility.yul\":3507:3522   */\n      add\n        /* \"#utility.yul\":3499:3522   */\n      swap1\n      pop\n        /* \"#utility.yul\":3221:3529   */\n      swap2\n      swap1\n      pop\n      jump\t// out\n        /* \"#utility.yul\":3535:3681   */\n    tag_88:\n        /* \"#utility.yul\":3632:3638   */\n      dup3\n        /* \"#utility.yul\":3627:3630   */\n      dup2\n        /* \"#utility.yul\":3622:3625   */\n      dup4\n        /* \"#utility.yul\":3609:3639   */\n      calldatacopy\n        /* \"#utility.yul\":3673:3674   */\n      0x00\n        /* \"#utility.yul\":3664:3670   */\n      dup4\n        /* \"#utility.yul\":3659:3662   */\n      dup4\n        /* \"#utility.yul\":3655:3671   */\n      add\n        /* \"#utility.yul\":3648:3675   */\n      mstore\n        /* \"#utility.yul\":3535:3681   */\n      pop\n      pop\n      pop\n      jump\t// out\n        /* \"#utility.yul\":3687:4112   */\n    tag_89:\n        /* \"#utility.yul\":3765:3770   */\n      0x00\n        /* \"#utility.yul\":3790:3856   */\n      tag_171\n        /* \"#utility.yul\":3806:3855   */\n      tag_172\n        /* \"#utility.yul\":3848:3854   */\n      dup5\n        /* \"#utility.yul\":3806:3855   */\n      tag_87\n      jump\t// in\n    tag_172:\n        /* \"#utility.yul\":3790:3856   */\n      tag_86\n      jump\t// in\n    tag_171:\n        /* \"#utility.yul\":3781:3856   */\n      swap1\n      pop\n        /* \"#utility.yul\":3879:3885   */\n      dup3\n        /* \"#utility.yul\":3872:3877   */\n      dup2\n        /* \"#utility.yul\":3865:3886   */\n      mstore\n        /* \"#utility.yul\":3917:3921   */\n      0x20\n        /* \"#utility.yul\":3910:3915   */\n      dup2\n        /* \"#utility.yul\":3906:3922   */\n      add\n        /* \"#utility.yul\":3955:3958   */\n      dup5\n        /* \"#utility.yul\":3946:3952   */\n      dup5\n        /* \"#utility.yul\":3941:3944   */\n      dup5\n        /* \"#utility.yul\":3937:3953   */\n      add\n        /* \"#utility.yul\":3934:3959   */\n      gt\n        /* \"#utility.yul\":3931:4043   */\n      iszero\n      tag_173\n      jumpi\n        /* \"#utility.yul\":3962:4041   */\n      tag_174\n      tag_84\n      jump\t// in\n    tag_174:\n        /* \"#utility.yul\":3931:4043   */\n    tag_173:\n        /* \"#utility.yul\":4052:4106   */\n      tag_175\n        /* \"#utility.yul\":4099:4105   */\n      dup5\n        /* \"#utility.yul\":4094:4097   */\n      dup3\n        /* \"#utility.yul\":4089:4092   */\n      dup6\n        /* \"#utility.yul\":4052:4106   */\n      tag_88\n      jump\t// in\n    tag_175:\n        /* \"#utility.yul\":3771:4112   */\n      pop\n        /* \"#utility.yul\":3687:4112   */\n      swap4\n      swap3\n      pop\n      pop\n      pop\n      jump\t// out\n        /* \"#utility.yul\":4132:4472   */\n    tag_90:\n        /* \"#utility.yul\":4188:4193   */\n      0x00\n        /* \"#utility.yul\":4237:4240   */\n      dup3\n        /* \"#utility.yul\":4230:4234   */\n      0x1f\n        /* \"#utility.yul\":4222:4228   */\n      dup4\n        /* \"#utility.yul\":4218:4235   */\n      add\n        /* \"#utility.yul\":4214:4241   */\n      slt\n        /* \"#utility.yul\":4204:4326   */\n      tag_177\n      jumpi\n        /* \"#utility.yul\":4245:4324   */\n      tag_178\n      tag_83\n      jump\t// in\n    tag_178:\n        /* \"#utility.yul\":4204:4326   */\n    tag_177:\n        /* \"#utility.yul\":4362:4368   */\n      dup2\n        /* \"#utility.yul\":4349:4369   */\n      calldataload\n        /* \"#utility.yul\":4387:4466   */\n      tag_179\n        /* \"#utility.yul\":4462:4465   */\n      dup5\n        /* \"#utility.yul\":4454:4460   */\n      dup3\n        /* \"#utility.yul\":4447:4451   */\n      0x20\n        /* \"#utility.yul\":4439:4445   */\n      dup7\n        /* \"#utility.yul\":4435:4452   */\n      add\n        /* \"#utility.yul\":4387:4466   */\n      tag_89\n      jump\t// in\n    tag_179:\n        /* \"#utility.yul\":4378:4466   */\n      swap2\n      pop\n        /* \"#utility.yul\":4194:4472   */\n      pop\n        /* \"#utility.yul\":4132:4472   */\n      swap3\n      swap2\n      pop\n      pop\n      jump\t// out\n        /* \"#utility.yul\":4478:5132   */\n    tag_16:\n        /* \"#utility.yul\":4556:4562   */\n      0x00\n        /* \"#utility.yul\":4564:4570   */\n      dup1\n        /* \"#utility.yul\":4613:4615   */\n      0x40\n        /* \"#utility.yul\":4601:4610   */\n      dup4\n        /* \"#utility.yul\":4592:4599   */\n      dup6\n        /* \"#utility.yul\":4588:4611   */\n      sub\n        /* \"#utility.yul\":4584:4616   */\n      slt\n        /* \"#utility.yul\":4581:4700   */\n      iszero\n      tag_181\n      jumpi\n        /* \"#utility.yul\":4619:4698   */\n      tag_182\n      tag_73\n      jump\t// in\n    tag_182:\n        /* \"#utility.yul\":4581:4700   */\n    tag_181:\n        /* \"#utility.yul\":4739:4740   */\n      0x00\n        /* \"#utility.yul\":4764:4817   */\n      tag_183\n        /* \"#utility.yul\":4809:4816   */\n      dup6\n        /* \"#utility.yul\":4800:4806   */\n      dup3\n        /* \"#utility.yul\":4789:4798   */\n      dup7\n        /* \"#utility.yul\":4785:4807   */\n      add\n        /* \"#utility.yul\":4764:4817   */\n      tag_77\n      jump\t// in\n    tag_183:\n        /* \"#utility.yul\":4754:4817   */\n      swap3\n      pop\n        /* \"#utility.yul\":4710:4827   */\n      pop\n        /* \"#utility.yul\":4894:4896   */\n      0x20\n        /* \"#utility.yul\":4883:4892   */\n      dup4\n        /* \"#utility.yul\":4879:4897   */\n      add\n        /* \"#utility.yul\":4866:4898   */\n      calldataload\n        /* \"#utility.yul\":4925:4943   */\n      0xffffffffffffffff\n        /* \"#utility.yul\":4917:4923   */\n      dup2\n        /* \"#utility.yul\":4914:4944   */\n      gt\n        /* \"#utility.yul\":4911:5028   */\n      iszero\n      tag_184\n      jumpi\n        /* \"#utility.yul\":4947:5026   */\n      tag_185\n      tag_74\n      jump\t// in\n    tag_185:\n        /* \"#utility.yul\":4911:5028   */\n    tag_184:\n        /* \"#utility.yul\":5052:5115   */\n      tag_186\n        /* \"#utility.yul\":5107:5114   */\n      dup6\n        /* \"#utility.yul\":5098:5104   */\n      dup3\n        /* \"#utility.yul\":5087:5096   */\n      dup7\n        /* \"#utility.yul\":5083:5105   */\n      add\n        /* \"#utility.yul\":5052:5115   */\n      tag_90\n      jump\t// in\n    tag_186:\n        /* \"#utility.yul\":5042:5115   */\n      swap2\n      pop\n        /* \"#utility.yul\":4837:5125   */\n      pop\n        /* \"#utility.yul\":4478:5132   */\n      swap3\n      pop\n      swap3\n      swap1\n      pop\n      jump\t// out\n        /* \"#utility.yul\":5138:5264   */\n    tag_91:\n        /* \"#utility.yul\":5175:5182   */\n      0x00\n        /* \"#utility.yul\":5215:5257   */\n      0xffffffffffffffffffffffffffffffffffffffff\n        /* \"#utility.yul\":5208:5213   */\n      dup3\n        /* \"#utility.yul\":5204:5258   */\n      and\n        /* \"#utility.yul\":5193:5258   */\n      swap1\n      pop\n        /* \"#utility.yul\":5138:5264   */\n      swap2\n      swap1\n      pop\n      jump\t// out\n        /* \"#utility.yul\":5270:5366   */\n    tag_92:\n        /* \"#utility.yul\":5307:5314   */\n      0x00\n        /* \"#utility.yul\":5336:5360   */\n      tag_189\n        /* \"#utility.yul\":5354:5359   */\n      dup3\n        /* \"#utility.yul\":5336:5360   */\n      tag_91\n      jump\t// in\n    tag_189:\n        /* \"#utility.yul\":5325:5360   */\n      swap1\n      pop\n        /* \"#utility.yul\":5270:5366   */\n      swap2\n      swap1\n      pop\n      jump\t// out\n        /* \"#utility.yul\":5372:5490   */\n    tag_93:\n        /* \"#utility.yul\":5459:5483   */\n      tag_191\n        /* \"#utility.yul\":5477:5482   */\n      dup2\n        /* \"#utility.yul\":5459:5483   */\n      tag_92\n      jump\t// in\n    tag_191:\n        /* \"#utility.yul\":5454:5457   */\n      dup3\n        /* \"#utility.yul\":5447:5484   */\n      mstore\n        /* \"#utility.yul\":5372:5490   */\n      pop\n      pop\n      jump\t// out\n        /* \"#utility.yul\":5496:5718   */\n    tag_21:\n        /* \"#utility.yul\":5589:5593   */\n      0x00\n        /* \"#utility.yul\":5627:5629   */\n      0x20\n        /* \"#utility.yul\":5616:5625   */\n      dup3\n        /* \"#utility.yul\":5612:5630   */\n      add\n        /* \"#utility.yul\":5604:5630   */\n      swap1\n      pop\n        /* \"#utility.yul\":5640:5711   */\n      tag_193\n        /* \"#utility.yul\":5708:5709   */\n      0x00\n        /* \"#utility.yul\":5697:5706   */\n      dup4\n        /* \"#utility.yul\":5693:5710   */\n      add\n        /* \"#utility.yul\":5684:5690   */\n      dup5\n        /* \"#utility.yul\":5640:5711   */\n      tag_93\n      jump\t// in\n    tag_193:\n        /* \"#utility.yul\":5496:5718   */\n      swap3\n      swap2\n      pop\n      pop\n      jump\t// out\n        /* \"#utility.yul\":5724:5866   */\n    tag_94:\n        /* \"#utility.yul\":5819:5825   */\n      0x00\n        /* \"#utility.yul\":5853:5858   */\n      dup2\n        /* \"#utility.yul\":5847:5859   */\n      mload\n        /* \"#utility.yul\":5837:5859   */\n      swap1\n      pop\n        /* \"#utility.yul\":5724:5866   */\n      swap2\n      swap1\n      pop\n      jump\t// out\n        /* \"#utility.yul\":5872:6084   */\n    tag_95:\n        /* \"#utility.yul\":5999:6010   */\n      0x00\n        /* \"#utility.yul\":6033:6039   */\n      dup3\n        /* \"#utility.yul\":6028:6031   */\n      dup3\n        /* \"#utility.yul\":6021:6040   */\n      mstore\n        /* \"#utility.yul\":6073:6077   */\n      0x20\n        /* \"#utility.yul\":6068:6071   */\n      dup3\n        /* \"#utility.yul\":6064:6078   */\n      add\n        /* \"#utility.yul\":6049:6078   */\n      swap1\n      pop\n        /* \"#utility.yul\":5872:6084   */\n      swap3\n      swap2\n      pop\n      pop\n      jump\t// out\n        /* \"#utility.yul\":6090:6250   */\n    tag_96:\n        /* \"#utility.yul\":6185:6189   */\n      0x00\n        /* \"#utility.yul\":6208:6211   */\n      dup2\n        /* \"#utility.yul\":6200:6211   */\n      swap1\n      pop\n        /* \"#utility.yul\":6238:6242   */\n      0x20\n        /* \"#utility.yul\":6233:6236   */\n      dup3\n        /* \"#utility.yul\":6229:6243   */\n      add\n        /* \"#utility.yul\":6221:6243   */\n      swap1\n      pop\n        /* \"#utility.yul\":6090:6250   */\n      swap2\n      swap1\n      pop\n      jump\t// out\n        /* \"#utility.yul\":6256:6364   */\n    tag_97:\n        /* \"#utility.yul\":6333:6357   */\n      tag_198\n        /* \"#utility.yul\":6351:6356   */\n      dup2\n        /* \"#utility.yul\":6333:6357   */\n      tag_75\n      jump\t// in\n    tag_198:\n        /* \"#utility.yul\":6328:6331   */\n      dup3\n        /* \"#utility.yul\":6321:6358   */\n      mstore\n        /* \"#utility.yul\":6256:6364   */\n      pop\n      pop\n      jump\t// out\n        /* \"#utility.yul\":6370:6529   */\n    tag_98:\n        /* \"#utility.yul\":6444:6455   */\n      0x00\n        /* \"#utility.yul\":6478:6484   */\n      dup3\n        /* \"#utility.yul\":6473:6476   */\n      dup3\n        /* \"#utility.yul\":6466:6485   */\n      mstore\n        /* \"#utility.yul\":6518:6522   */\n      0x20\n        /* \"#utility.yul\":6513:6516   */\n      dup3\n        /* \"#utility.yul\":6509:6523   */\n      add\n        /* \"#utility.yul\":6494:6523   */\n      swap1\n      pop\n        /* \"#utility.yul\":6370:6529   */\n      swap3\n      swap2\n      pop\n      pop\n      jump\t// out\n        /* \"#utility.yul\":6535:6892   */\n    tag_99:\n        /* \"#utility.yul\":6613:6616   */\n      0x00\n        /* \"#utility.yul\":6641:6680   */\n      tag_201\n        /* \"#utility.yul\":6674:6679   */\n      dup3\n        /* \"#utility.yul\":6641:6680   */\n      tag_78\n      jump\t// in\n    tag_201:\n        /* \"#utility.yul\":6696:6757   */\n      tag_202\n        /* \"#utility.yul\":6750:6756   */\n      dup2\n        /* \"#utility.yul\":6745:6748   */\n      dup6\n        /* \"#utility.yul\":6696:6757   */\n      tag_98\n      jump\t// in\n    tag_202:\n        /* \"#utility.yul\":6689:6757   */\n      swap4\n      pop\n        /* \"#utility.yul\":6766:6831   */\n      tag_203\n        /* \"#utility.yul\":6824:6830   */\n      dup2\n        /* \"#utility.yul\":6819:6822   */\n      dup6\n        /* \"#utility.yul\":6812:6816   */\n      0x20\n        /* \"#utility.yul\":6805:6810   */\n      dup7\n        /* \"#utility.yul\":6801:6817   */\n      add\n        /* \"#utility.yul\":6766:6831   */\n      tag_80\n      jump\t// in\n    tag_203:\n        /* \"#utility.yul\":6856:6885   */\n      tag_204\n        /* \"#utility.yul\":6878:6884   */\n      dup2\n        /* \"#utility.yul\":6856:6885   */\n      tag_81\n      jump\t// in\n    tag_204:\n        /* \"#utility.yul\":6851:6854   */\n      dup5\n        /* \"#utility.yul\":6847:6886   */\n      add\n        /* \"#utility.yul\":6840:6886   */\n      swap2\n      pop\n        /* \"#utility.yul\":6617:6892   */\n      pop\n        /* \"#utility.yul\":6535:6892   */\n      swap3\n      swap2\n      pop\n      pop\n      jump\t// out\n        /* \"#utility.yul\":6976:7580   */\n    tag_100:\n        /* \"#utility.yul\":7091:7094   */\n      0x00\n        /* \"#utility.yul\":7127:7131   */\n      0x40\n        /* \"#utility.yul\":7122:7125   */\n      dup4\n        /* \"#utility.yul\":7118:7132   */\n      add\n        /* \"#utility.yul\":7217:7221   */\n      0x00\n        /* \"#utility.yul\":7210:7215   */\n      dup4\n        /* \"#utility.yul\":7206:7222   */\n      add\n        /* \"#utility.yul\":7200:7223   */\n      mload\n        /* \"#utility.yul\":7236:7299   */\n      tag_206\n        /* \"#utility.yul\":7293:7297   */\n      0x00\n        /* \"#utility.yul\":7288:7291   */\n      dup7\n        /* \"#utility.yul\":7284:7298   */\n      add\n        /* \"#utility.yul\":7270:7282   */\n      dup3\n        /* \"#utility.yul\":7236:7299   */\n      tag_97\n      jump\t// in\n    tag_206:\n        /* \"#utility.yul\":7142:7309   */\n      pop\n        /* \"#utility.yul\":7390:7394   */\n      0x20\n        /* \"#utility.yul\":7383:7388   */\n      dup4\n        /* \"#utility.yul\":7379:7395   */\n      add\n        /* \"#utility.yul\":7373:7396   */\n      mload\n        /* \"#utility.yul\":7443:7446   */\n      dup5\n        /* \"#utility.yul\":7437:7441   */\n      dup3\n        /* \"#utility.yul\":7433:7447   */\n      sub\n        /* \"#utility.yul\":7426:7430   */\n      0x20\n        /* \"#utility.yul\":7421:7424   */\n      dup7\n        /* \"#utility.yul\":7417:7431   */\n      add\n        /* \"#utility.yul\":7410:7448   */\n      mstore\n        /* \"#utility.yul\":7469:7542   */\n      tag_207\n        /* \"#utility.yul\":7537:7541   */\n      dup3\n        /* \"#utility.yul\":7523:7535   */\n      dup3\n        /* \"#utility.yul\":7469:7542   */\n      tag_99\n      jump\t// in\n    tag_207:\n        /* \"#utility.yul\":7461:7542   */\n      swap2\n      pop\n        /* \"#utility.yul\":7319:7553   */\n      pop\n        /* \"#utility.yul\":7570:7574   */\n      dup1\n        /* \"#utility.yul\":7563:7574   */\n      swap2\n      pop\n        /* \"#utility.yul\":7096:7580   */\n      pop\n        /* \"#utility.yul\":6976:7580   */\n      swap3\n      swap2\n      pop\n      pop\n      jump\t// out\n        /* \"#utility.yul\":7586:7854   */\n    tag_101:\n        /* \"#utility.yul\":7711:7721   */\n      0x00\n        /* \"#utility.yul\":7746:7848   */\n      tag_209\n        /* \"#utility.yul\":7844:7847   */\n      dup4\n        /* \"#utility.yul\":7836:7842   */\n      dup4\n        /* \"#utility.yul\":7746:7848   */\n      tag_100\n      jump\t// in\n    tag_209:\n        /* \"#utility.yul\":7732:7848   */\n      swap1\n      pop\n        /* \"#utility.yul\":7586:7854   */\n      swap3\n      swap2\n      pop\n      pop\n      jump\t// out\n        /* \"#utility.yul\":7860:8001   */\n    tag_102:\n        /* \"#utility.yul\":7958:7962   */\n      0x00\n        /* \"#utility.yul\":7990:7994   */\n      0x20\n        /* \"#utility.yul\":7985:7988   */\n      dup3\n        /* \"#utility.yul\":7981:7995   */\n      add\n        /* \"#utility.yul\":7973:7995   */\n      swap1\n      pop\n        /* \"#utility.yul\":7860:8001   */\n      swap2\n      swap1\n      pop\n      jump\t// out\n        /* \"#utility.yul\":8089:9224   */\n    tag_103:\n        /* \"#utility.yul\":8264:8267   */\n      0x00\n        /* \"#utility.yul\":8293:8375   */\n      tag_212\n        /* \"#utility.yul\":8369:8374   */\n      dup3\n        /* \"#utility.yul\":8293:8375   */\n      tag_94\n      jump\t// in\n    tag_212:\n        /* \"#utility.yul\":8391:8505   */\n      tag_213\n        /* \"#utility.yul\":8498:8504   */\n      dup2\n        /* \"#utility.yul\":8493:8496   */\n      dup6\n        /* \"#utility.yul\":8391:8505   */\n      tag_95\n      jump\t// in\n    tag_213:\n        /* \"#utility.yul\":8384:8505   */\n      swap4\n      pop\n        /* \"#utility.yul\":8531:8534   */\n      dup4\n        /* \"#utility.yul\":8576:8580   */\n      0x20\n        /* \"#utility.yul\":8568:8574   */\n      dup3\n        /* \"#utility.yul\":8564:8581   */\n      mul\n        /* \"#utility.yul\":8559:8562   */\n      dup6\n        /* \"#utility.yul\":8555:8582   */\n      add\n        /* \"#utility.yul\":8606:8690   */\n      tag_214\n        /* \"#utility.yul\":8684:8689   */\n      dup6\n        /* \"#utility.yul\":8606:8690   */\n      tag_96\n      jump\t// in\n    tag_214:\n        /* \"#utility.yul\":8713:8720   */\n      dup1\n        /* \"#utility.yul\":8744:8745   */\n      0x00\n        /* \"#utility.yul\":8729:9179   */\n    tag_215:\n        /* \"#utility.yul\":8754:8760   */\n      dup6\n        /* \"#utility.yul\":8751:8752   */\n      dup2\n        /* \"#utility.yul\":8748:8761   */\n      lt\n        /* \"#utility.yul\":8729:9179   */\n      iszero\n      tag_217\n      jumpi\n        /* \"#utility.yul\":8825:8834   */\n      dup5\n        /* \"#utility.yul\":8819:8823   */\n      dup5\n        /* \"#utility.yul\":8815:8835   */\n      sub\n        /* \"#utility.yul\":8810:8813   */\n      dup10\n        /* \"#utility.yul\":8803:8836   */\n      mstore\n        /* \"#utility.yul\":8876:8882   */\n      dup2\n        /* \"#utility.yul\":8870:8883   */\n      mload\n        /* \"#utility.yul\":8904:9024   */\n      tag_218\n        /* \"#utility.yul\":9019:9023   */\n      dup6\n        /* \"#utility.yul\":9004:9017   */\n      dup3\n        /* \"#utility.yul\":8904:9024   */\n      tag_101\n      jump\t// in\n    tag_218:\n        /* \"#utility.yul\":8896:9024   */\n      swap5\n      pop\n        /* \"#utility.yul\":9047:9135   */\n      tag_219\n        /* \"#utility.yul\":9128:9134   */\n      dup4\n        /* \"#utility.yul\":9047:9135   */\n      tag_102\n      jump\t// in\n    tag_219:\n        /* \"#utility.yul\":9037:9135   */\n      swap3\n      pop\n        /* \"#utility.yul\":9164:9168   */\n      0x20\n        /* \"#utility.yul\":9159:9162   */\n      dup11\n        /* \"#utility.yul\":9155:9169   */\n      add\n        /* \"#utility.yul\":9148:9169   */\n      swap10\n      pop\n        /* \"#utility.yul\":8789:9179   */\n      pop\n        /* \"#utility.yul\":8776:8777   */\n      0x01\n        /* \"#utility.yul\":8773:8774   */\n      dup2\n        /* \"#utility.yul\":8769:8778   */\n      add\n        /* \"#utility.yul\":8764:8778   */\n      swap1\n      pop\n        /* \"#utility.yul\":8729:9179   */\n      jump(tag_215)\n    tag_217:\n        /* \"#utility.yul\":8733:8747   */\n      pop\n        /* \"#utility.yul\":9195:9199   */\n      dup3\n        /* \"#utility.yul\":9188:9199   */\n      swap8\n      pop\n        /* \"#utility.yul\":9215:9218   */\n      dup8\n        /* \"#utility.yul\":9208:9218   */\n      swap6\n      pop\n        /* \"#utility.yul\":8269:9224   */\n      pop\n      pop\n      pop\n      pop\n      pop\n        /* \"#utility.yul\":8089:9224   */\n      swap3\n      swap2\n      pop\n      pop\n      jump\t// out\n        /* \"#utility.yul\":9230:9715   */\n    tag_25:\n        /* \"#utility.yul\":9429:9433   */\n      0x00\n        /* \"#utility.yul\":9467:9469   */\n      0x20\n        /* \"#utility.yul\":9456:9465   */\n      dup3\n        /* \"#utility.yul\":9452:9470   */\n      add\n        /* \"#utility.yul\":9444:9470   */\n      swap1\n      pop\n        /* \"#utility.yul\":9516:9525   */\n      dup2\n        /* \"#utility.yul\":9510:9514   */\n      dup2\n        /* \"#utility.yul\":9506:9526   */\n      sub\n        /* \"#utility.yul\":9502:9503   */\n      0x00\n        /* \"#utility.yul\":9491:9500   */\n      dup4\n        /* \"#utility.yul\":9487:9504   */\n      add\n        /* \"#utility.yul\":9480:9527   */\n      mstore\n        /* \"#utility.yul\":9544:9708   */\n      tag_221\n        /* \"#utility.yul\":9703:9707   */\n      dup2\n        /* \"#utility.yul\":9694:9700   */\n      dup5\n        /* \"#utility.yul\":9544:9708   */\n      tag_103\n      jump\t// in\n    tag_221:\n        /* \"#utility.yul\":9536:9708   */\n      swap1\n      pop\n        /* \"#utility.yul\":9230:9715   */\n      swap3\n      swap2\n      pop\n      pop\n      jump\t// out\n        /* \"#utility.yul\":9721:9843   */\n    tag_104:\n        /* \"#utility.yul\":9794:9818   */\n      tag_223\n        /* \"#utility.yul\":9812:9817   */\n      dup2\n        /* \"#utility.yul\":9794:9818   */\n      tag_92\n      jump\t// in\n    tag_223:\n        /* \"#utility.yul\":9787:9792   */\n      dup2\n        /* \"#utility.yul\":9784:9819   */\n      eq\n        /* \"#utility.yul\":9774:9837   */\n      tag_224\n      jumpi\n        /* \"#utility.yul\":9833:9834   */\n      0x00\n        /* \"#utility.yul\":9830:9831   */\n      dup1\n        /* \"#utility.yul\":9823:9835   */\n      revert\n        /* \"#utility.yul\":9774:9837   */\n    tag_224:\n        /* \"#utility.yul\":9721:9843   */\n      pop\n      jump\t// out\n        /* \"#utility.yul\":9849:9988   */\n    tag_105:\n        /* \"#utility.yul\":9895:9900   */\n      0x00\n        /* \"#utility.yul\":9933:9939   */\n      dup2\n        /* \"#utility.yul\":9920:9940   */\n      calldataload\n        /* \"#utility.yul\":9911:9940   */\n      swap1\n      pop\n        /* \"#utility.yul\":9949:9982   */\n      tag_226\n        /* \"#utility.yul\":9976:9981   */\n      dup2\n        /* \"#utility.yul\":9949:9982   */\n      tag_104\n      jump\t// in\n    tag_226:\n        /* \"#utility.yul\":9849:9988   */\n      swap3\n      swap2\n      pop\n      pop\n      jump\t// out\n        /* \"#utility.yul\":9994:10323   */\n    tag_28:\n        /* \"#utility.yul\":10053:10059   */\n      0x00\n        /* \"#utility.yul\":10102:10104   */\n      0x20\n        /* \"#utility.yul\":10090:10099   */\n      dup3\n        /* \"#utility.yul\":10081:10088   */\n      dup5\n        /* \"#utility.yul\":10077:10100   */\n      sub\n        /* \"#utility.yul\":10073:10105   */\n      slt\n        /* \"#utility.yul\":10070:10189   */\n      iszero\n      tag_228\n      jumpi\n        /* \"#utility.yul\":10108:10187   */\n      tag_229\n      tag_73\n      jump\t// in\n    tag_229:\n        /* \"#utility.yul\":10070:10189   */\n    tag_228:\n        /* \"#utility.yul\":10228:10229   */\n      0x00\n        /* \"#utility.yul\":10253:10306   */\n      tag_230\n        /* \"#utility.yul\":10298:10305   */\n      dup5\n        /* \"#utility.yul\":10289:10295   */\n      dup3\n        /* \"#utility.yul\":10278:10287   */\n      dup6\n        /* \"#utility.yul\":10274:10296   */\n      add\n        /* \"#utility.yul\":10253:10306   */\n      tag_105\n      jump\t// in\n    tag_230:\n        /* \"#utility.yul\":10243:10306   */\n      swap2\n      pop\n        /* \"#utility.yul\":10199:10316   */\n      pop\n        /* \"#utility.yul\":9994:10323   */\n      swap3\n      swap2\n      pop\n      pop\n      jump\t// out\n        /* \"#utility.yul\":10329:10509   */\n    tag_106:\n        /* \"#utility.yul\":10377:10454   */\n      0x4e487b7100000000000000000000000000000000000000000000000000000000\n        /* \"#utility.yul\":10374:10375   */\n      0x00\n        /* \"#utility.yul\":10367:10455   */\n      mstore\n        /* \"#utility.yul\":10474:10478   */\n      0x22\n        /* \"#utility.yul\":10471:10472   */\n      0x04\n        /* \"#utility.yul\":10464:10479   */\n      mstore\n        /* \"#utility.yul\":10498:10502   */\n      0x24\n        /* \"#utility.yul\":10495:10496   */\n      0x00\n        /* \"#utility.yul\":10488:10503   */\n      revert\n        /* \"#utility.yul\":10515:10835   */\n    tag_31:\n        /* \"#utility.yul\":10559:10565   */\n      0x00\n        /* \"#utility.yul\":10596:10597   */\n      0x02\n        /* \"#utility.yul\":10590:10594   */\n      dup3\n        /* \"#utility.yul\":10586:10598   */\n      div\n        /* \"#utility.yul\":10576:10598   */\n      swap1\n      pop\n        /* \"#utility.yul\":10643:10644   */\n      0x01\n        /* \"#utility.yul\":10637:10641   */\n      dup3\n        /* \"#utility.yul\":10633:10645   */\n      and\n        /* \"#utility.yul\":10664:10682   */\n      dup1\n        /* \"#utility.yul\":10654:10735   */\n      tag_233\n      jumpi\n        /* \"#utility.yul\":10720:10724   */\n      0x7f\n        /* \"#utility.yul\":10712:10718   */\n      dup3\n        /* \"#utility.yul\":10708:10725   */\n      and\n        /* \"#utility.yul\":10698:10725   */\n      swap2\n      pop\n        /* \"#utility.yul\":10654:10735   */\n    tag_233:\n        /* \"#utility.yul\":10782:10784   */\n      0x20\n        /* \"#utility.yul\":10774:10780   */\n      dup3\n        /* \"#utility.yul\":10771:10785   */\n      lt\n        /* \"#utility.yul\":10751:10769   */\n      dup2\n        /* \"#utility.yul\":10748:10786   */\n      sub\n        /* \"#utility.yul\":10745:10829   */\n      tag_234\n      jumpi\n        /* \"#utility.yul\":10801:10819   */\n      tag_235\n      tag_106\n      jump\t// in\n    tag_235:\n        /* \"#utility.yul\":10745:10829   */\n    tag_234:\n        /* \"#utility.yul\":10566:10835   */\n      pop\n        /* \"#utility.yul\":10515:10835   */\n      swap2\n      swap1\n      pop\n      jump\t// out\n        /* \"#utility.yul\":10841:11061   */\n    tag_107:\n        /* \"#utility.yul\":10981:11015   */\n      0x4f6e6c79206f776e65722063616e2063616c6c20746869732066756e6374696f\n        /* \"#utility.yul\":10977:10978   */\n      0x00\n        /* \"#utility.yul\":10969:10975   */\n      dup3\n        /* \"#utility.yul\":10965:10979   */\n      add\n        /* \"#utility.yul\":10958:11016   */\n      mstore\n        /* \"#utility.yul\":11050:11053   */\n      0x6e00000000000000000000000000000000000000000000000000000000000000\n        /* \"#utility.yul\":11045:11047   */\n      0x20\n        /* \"#utility.yul\":11037:11043   */\n      dup3\n        /* \"#utility.yul\":11033:11048   */\n      add\n        /* \"#utility.yul\":11026:11054   */\n      mstore\n        /* \"#utility.yul\":10841:11061   */\n      pop\n      jump\t// out\n        /* \"#utility.yul\":11067:11433   */\n    tag_108:\n        /* \"#utility.yul\":11209:11212   */\n      0x00\n        /* \"#utility.yul\":11230:11297   */\n      tag_238\n        /* \"#utility.yul\":11294:11296   */\n      0x21\n        /* \"#utility.yul\":11289:11292   */\n      dup4\n        /* \"#utility.yul\":11230:11297   */\n      tag_79\n      jump\t// in\n    tag_238:\n        /* \"#utility.yul\":11223:11297   */\n      swap2\n      pop\n        /* \"#utility.yul\":11306:11399   */\n      tag_239\n        /* \"#utility.yul\":11395:11398   */\n      dup3\n        /* \"#utility.yul\":11306:11399   */\n      tag_107\n      jump\t// in\n    tag_239:\n        /* \"#utility.yul\":11424:11426   */\n      0x40\n        /* \"#utility.yul\":11419:11422   */\n      dup3\n        /* \"#utility.yul\":11415:11427   */\n      add\n        /* \"#utility.yul\":11408:11427   */\n      swap1\n      pop\n        /* \"#utility.yul\":11067:11433   */\n      swap2\n      swap1\n      pop\n      jump\t// out\n        /* \"#utility.yul\":11439:11858   */\n    tag_39:\n        /* \"#utility.yul\":11605:11609   */\n      0x00\n        /* \"#utility.yul\":11643:11645   */\n      0x20\n        /* \"#utility.yul\":11632:11641   */\n      dup3\n        /* \"#utility.yul\":11628:11646   */\n      add\n        /* \"#utility.yul\":11620:11646   */\n      swap1\n      pop\n        /* \"#utility.yul\":11692:11701   */\n      dup2\n        /* \"#utility.yul\":11686:11690   */\n      dup2\n        /* \"#utility.yul\":11682:11702   */\n      sub\n        /* \"#utility.yul\":11678:11679   */\n      0x00\n        /* \"#utility.yul\":11667:11676   */\n      dup4\n        /* \"#utility.yul\":11663:11680   */\n      add\n        /* \"#utility.yul\":11656:11703   */\n      mstore\n        /* \"#utility.yul\":11720:11851   */\n      tag_241\n        /* \"#utility.yul\":11846:11850   */\n      dup2\n        /* \"#utility.yul\":11720:11851   */\n      tag_108\n      jump\t// in\n    tag_241:\n        /* \"#utility.yul\":11712:11851   */\n      swap1\n      pop\n        /* \"#utility.yul\":11439:11858   */\n      swap2\n      swap1\n      pop\n      jump\t// out\n        /* \"#utility.yul\":11864:12005   */\n    tag_109:\n        /* \"#utility.yul\":11913:11917   */\n      0x00\n        /* \"#utility.yul\":11936:11939   */\n      dup2\n        /* \"#utility.yul\":11928:11939   */\n      swap1\n      pop\n        /* \"#utility.yul\":11959:11962   */\n      dup2\n        /* \"#utility.yul\":11956:11957   */\n      0x00\n        /* \"#utility.yul\":11949:11963   */\n      mstore\n        /* \"#utility.yul\":11993:11997   */\n      0x20\n        /* \"#utility.yul\":11990:11991   */\n      0x00\n        /* \"#utility.yul\":11980:11998   */\n      keccak256\n        /* \"#utility.yul\":11972:11998   */\n      swap1\n      pop\n        /* \"#utility.yul\":11864:12005   */\n      swap2\n      swap1\n      pop\n      jump\t// out\n        /* \"#utility.yul\":12011:12104   */\n    tag_110:\n        /* \"#utility.yul\":12048:12054   */\n      0x00\n        /* \"#utility.yul\":12095:12097   */\n      0x20\n        /* \"#utility.yul\":12090:12092   */\n      0x1f\n        /* \"#utility.yul\":12083:12088   */\n      dup4\n        /* \"#utility.yul\":12079:12093   */\n      add\n        /* \"#utility.yul\":12075:12098   */\n      div\n        /* \"#utility.yul\":12065:12098   */\n      swap1\n      pop\n        /* \"#utility.yul\":12011:12104   */\n      swap2\n      swap1\n      pop\n      jump\t// out\n        /* \"#utility.yul\":12110:12217   */\n    tag_111:\n        /* \"#utility.yul\":12154:12162   */\n      0x00\n        /* \"#utility.yul\":12204:12209   */\n      dup3\n        /* \"#utility.yul\":12198:12202   */\n      dup3\n        /* \"#utility.yul\":12194:12210   */\n      shl\n        /* \"#utility.yul\":12173:12210   */\n      swap1\n      pop\n        /* \"#utility.yul\":12110:12217   */\n      swap3\n      swap2\n      pop\n      pop\n      jump\t// out\n        /* \"#utility.yul\":12223:12616   */\n    tag_112:\n        /* \"#utility.yul\":12292:12298   */\n      0x00\n        /* \"#utility.yul\":12342:12343   */\n      0x08\n        /* \"#utility.yul\":12330:12340   */\n      dup4\n        /* \"#utility.yul\":12326:12344   */\n      mul\n        /* \"#utility.yul\":12365:12462   */\n      tag_246\n        /* \"#utility.yul\":12395:12461   */\n      0xffffffffffffffffffffffffffffffffffffffffffffffffffffffffffffffff\n        /* \"#utility.yul\":12384:12393   */\n      dup3\n        /* \"#utility.yul\":12365:12462   */\n      tag_111\n      jump\t// in\n    tag_246:\n        /* \"#utility.yul\":12483:12522   */\n      tag_247\n        /* \"#utility.yul\":12513:12521   */\n      dup7\n        /* \"#utility.yul\":12502:12511   */\n      dup4\n        /* \"#utility.yul\":12483:12522   */\n      tag_111\n      jump\t// in\n    tag_247:\n        /* \"#utility.yul\":12471:12522   */\n      swap6\n      pop\n        /* \"#utility.yul\":12555:12559   */\n      dup1\n        /* \"#utility.yul\":12551:12560   */\n      not\n        /* \"#utility.yul\":12544:12549   */\n      dup5\n        /* \"#utility.yul\":12540:12561   */\n      and\n        /* \"#utility.yul\":12531:12561   */\n      swap4\n      pop\n        /* \"#utility.yul\":12604:12608   */\n      dup1\n        /* \"#utility.yul\":12594:12602   */\n      dup7\n        /* \"#utility.yul\":12590:12609   */\n      and\n        /* \"#utility.yul\":12583:12588   */\n      dup5\n        /* \"#utility.yul\":12580:12610   */\n      or\n        /* \"#utility.yul\":12570:12610   */\n      swap3\n      pop\n        /* \"#utility.yul\":12299:12616   */\n      pop\n      pop\n        /* \"#utility.yul\":12223:12616   */\n      swap4\n      swap3\n      pop\n      pop\n      pop\n      jump\t// out\n        /* \"#utility.yul\":12622:12682   */\n    tag_113:\n        /* \"#utility.yul\":12650:12653   */\n      0x00\n        /* \"#utility.yul\":12671:12676   */\n      dup2\n        /* \"#utility.yul\":12664:12676   */\n      swap1\n      pop\n        /* \"#utility.yul\":12622:12682   */\n      swap2\n      swap1\n      pop\n      jump\t// out\n        /* \"#utility.yul\":12688:12830   */\n    tag_114:\n        /* \"#utility.yul\":12738:12747   */\n      0x00\n        /* \"#utility.yul\":12771:12824   */\n      tag_250\n        /* \"#utility.yul\":12789:12823   */\n      tag_251\n        /* \"#utility.yul\":12798:12822   */\n      tag_252\n        /* \"#utility.yul\":12816:12821   */\n      dup5\n        /* \"#utility.yul\":12798:12822   */\n      tag_75\n      jump\t// in\n    tag_252:\n        /* \"#utility.yul\":12789:12823   */\n      tag_113\n      jump\t// in\n    tag_251:\n        /* \"#utility.yul\":12771:12824   */\n      tag_75\n      jump\t// in\n    tag_250:\n        /* \"#utility.yul\":12758:12824   */\n      swap1\n      pop\n        /* \"#utility.yul\":12688:12830   */\n      swap2\n      swap1\n      pop\n      jump\t// out\n        /* \"#utility.yul\":12836:12911   */\n    tag_115:\n        /* \"#utility.yul\":12879:12882   */\n      0x00\n        /* \"#utility.yul\":12900:12905   */\n      dup2\n        /* \"#utility.yul\":12893:12905   */\n      swap1\n      pop\n        /* \"#utility.yul\":12836:12911   */\n      swap2\n      swap1\n      pop\n      jump\t// out\n        /* \"#utility.yul\":12917:13186   */\n    tag_116:\n        /* \"#utility.yul\":13027:13066   */\n      tag_255\n        /* \"#utility.yul\":13058:13065   */\n      dup4\n        /* \"#utility.yul\":13027:13066   */\n      tag_114\n      jump\t// in\n    tag_255:\n        /* \"#utility.yul\":13088:13179   */\n      tag_256\n        /* \"#utility.yul\":13137:13178   */\n      tag_257\n        /* \"#utility.yul\":13161:13177   */\n      dup3\n        /* \"#utility.yul\":13137:13178   */\n      tag_115\n      jump\t// in\n    tag_257:\n        /* \"#utility.yul\":13129:13135   */\n      dup5\n        /* \"#utility.yul\":13122:13126   */\n      dup5\n        /* \"#utility.yul\":13116:13127   */\n      sload\n        /* \"#utility.yul\":13088:13179   */\n      tag_112\n      jump\t// in\n    tag_256:\n        /* \"#utility.yul\":13082:13086   */\n      dup3\n        /* \"#utility.yul\":13075:13180   */\n      sstore\n        /* \"#utility.yul\":12993:13186   */\n      pop\n        /* \"#utility.yul\":12917:13186   */\n      pop\n      pop\n      pop\n      jump\t// out\n        /* \"#utility.yul\":13192:13265   */\n    tag_117:\n        /* \"#utility.yul\":13237:13240   */\n      0x00\n        /* \"#utility.yul\":13192:13265   */\n      swap1\n      jump\t// out\n        /* \"#utility.yul\":13271:13460   */\n    tag_118:\n        /* \"#utility.yul\":13348:13380   */\n      tag_260\n      tag_117\n      jump\t// in\n    tag_260:\n        /* \"#utility.yul\":13389:13454   */\n      tag_261\n        /* \"#utility.yul\":13447:13453   */\n      dup2\n        /* \"#utility.yul\":13439:13445   */\n      dup5\n        /* \"#utility.yul\":13433:13437   */\n      dup5\n        /* \"#utility.yul\":13389:13454   */\n      tag_116\n      jump\t// in\n    tag_261:\n        /* \"#utility.yul\":13324:13460   */\n      pop\n        /* \"#utility.yul\":13271:13460   */\n      pop\n      pop\n      jump\t// out\n        /* \"#utility.yul\":13466:13652   */\n    tag_119:\n        /* \"#utility.yul\":13526:13646   */\n    tag_263:\n        /* \"#utility.yul\":13543:13546   */\n      dup2\n        /* \"#utility.yul\":13536:13541   */\n      dup2\n        /* \"#utility.yul\":13533:13547   */\n      lt\n        /* \"#utility.yul\":13526:13646   */\n      iszero\n      tag_265\n      jumpi\n        /* \"#utility.yul\":13597:13636   */\n      tag_266\n        /* \"#utility.yul\":13634:13635   */\n      0x00\n        /* \"#utility.yul\":13627:13632   */\n      dup3\n        /* \"#utility.yul\":13597:13636   */\n      tag_118\n      jump\t// in\n    tag_266:\n        /* \"#utility.yul\":13570:13571   */\n      0x01\n        /* \"#utility.yul\":13563:13568   */\n      dup2\n        /* \"#utility.yul\":13559:13572   */\n      add\n        /* \"#utility.yul\":13550:13572   */\n      swap1\n      pop\n        /* \"#utility.yul\":13526:13646   */\n      jump(tag_263)\n    tag_265:\n        /* \"#utility.yul\":13466:13652   */\n      pop\n      pop\n      jump\t// out\n        /* \"#utility.yul\":13658:14201   */\n    tag_120:\n        /* \"#utility.yul\":13759:13761   */\n      0x1f\n        /* \"#utility.yul\":13754:13757   */\n      dup3\n        /* \"#utility.yul\":13751:13762   */\n      gt\n        /* \"#utility.yul\":13748:14194   */\n      iszero\n      tag_268\n      jumpi\n        /* \"#utility.yul\":13793:13831   */\n      tag_269\n        /* \"#utility.yul\":13825:13830   */\n      dup2\n        /* \"#utility.yul\":13793:13831   */\n      tag_109\n      jump\t// in\n    tag_269:\n        /* \"#utility.yul\":13877:13906   */\n      tag_270\n        /* \"#utility.yul\":13895:13905   */\n      dup5\n        /* \"#utility.yul\":13877:13906   */\n      tag_110\n      jump\t// in\n    tag_270:\n        /* \"#utility.yul\":13867:13875   */\n      dup2\n        /* \"#utility.yul\":13863:13907   */\n      add\n        /* \"#utility.yul\":14060:14062   */\n      0x20\n        /* \"#utility.yul\":14048:14058   */\n      dup6\n        /* \"#utility.yul\":14045:14063   */\n      lt\n        /* \"#utility.yul\":14042:14091   */\n      iszero\n      tag_271\n      jumpi\n        /* \"#utility.yul\":14081:14089   */\n      dup2\n        /* \"#utility.yul\":14066:14089   */\n      swap1\n      pop\n        /* \"#utility.yul\":14042:14091   */\n    tag_271:\n        /* \"#utility.yul\":14104:14184   */\n      tag_272\n        /* \"#utility.yul\":14160:14182   */\n      tag_273\n        /* \"#utility.yul\":14178:14181   */\n      dup6\n        /* \"#utility.yul\":14160:14182   */\n      tag_110\n      jump\t// in\n    tag_273:\n        /* \"#utility.yul\":14150:14158   */\n      dup4\n        /* \"#utility.yul\":14146:14183   */\n      add\n        /* \"#utility.yul\":14133:14144   */\n      dup3\n        /* \"#utility.yul\":14104:14184   */\n      tag_119\n      jump\t// in\n    tag_272:\n        /* \"#utility.yul\":13763:14194   */\n      pop\n      pop\n        /* \"#utility.yul\":13748:14194   */\n    tag_268:\n        /* \"#utility.yul\":13658:14201   */\n      pop\n      pop\n      pop\n      jump\t// out\n        /* \"#utility.yul\":14207:14324   */\n    tag_121:\n        /* \"#utility.yul\":14261:14269   */\n      0x00\n        /* \"#utility.yul\":14311:14316   */\n      dup3\n        /* \"#utility.yul\":14305:14309   */\n      dup3\n        /* \"#utility.yul\":14301:14317   */\n      shr\n        /* \"#utility.yul\":14280:14317   */\n      swap1\n      pop\n        /* \"#utility.yul\":14207:14324   */\n      swap3\n      swap2\n      pop\n      pop\n      jump\t// out\n        /* \"#utility.yul\":14330:14499   */\n    tag_122:\n        /* \"#utility.yul\":14374:14380   */\n      0x00\n        /* \"#utility.yul\":14407:14458   */\n      tag_276\n        /* \"#utility.yul\":14455:14456   */\n      0x00\n        /* \"#utility.yul\":14451:14457   */\n      not\n        /* \"#utility.yul\":14443:14448   */\n      dup5\n        /* \"#utility.yul\":14440:14441   */\n      0x08\n        /* \"#utility.yul\":14436:14449   */\n      mul\n        /* \"#utility.yul\":14407:14458   */\n      tag_121\n      jump\t// in\n    tag_276:\n        /* \"#utility.yul\":14403:14459   */\n      not\n        /* \"#utility.yul\":14488:14492   */\n      dup1\n        /* \"#utility.yul\":14482:14486   */\n      dup4\n        /* \"#utility.yul\":14478:14493   */\n      and\n        /* \"#utility.yul\":14468:14493   */\n      swap2\n      pop\n        /* \"#utility.yul\":14381:14499   */\n      pop\n        /* \"#utility.yul\":14330:14499   */\n      swap3\n      swap2\n      pop\n      pop\n      jump\t// out\n        /* \"#utility.yul\":14504:14799   */\n    tag_123:\n        /* \"#utility.yul\":14580:14584   */\n      0x00\n        /* \"#utility.yul\":14726:14755   */\n      tag_278\n        /* \"#utility.yul\":14751:14754   */\n      dup4\n        /* \"#utility.yul\":14745:14749   */\n      dup4\n        /* \"#utility.yul\":14726:14755   */\n      tag_122\n      jump\t// in\n    tag_278:\n        /* \"#utility.yul\":14718:14755   */\n      swap2\n      pop\n        /* \"#utility.yul\":14788:14791   */\n      dup3\n        /* \"#utility.yul\":14785:14786   */\n      0x02\n        /* \"#utility.yul\":14781:14792   */\n      mul\n        /* \"#utility.yul\":14775:14779   */\n      dup3\n        /* \"#utility.yul\":14772:14793   */\n      or\n        /* \"#utility.yul\":14764:14793   */\n      swap1\n      pop\n        /* \"#utility.yul\":14504:14799   */\n      swap3\n      swap2\n      pop\n      pop\n      jump\t// out\n        /* \"#utility.yul\":14804:16199   */\n    tag_42:\n        /* \"#utility.yul\":14921:14958   */\n      tag_280\n        /* \"#utility.yul\":14954:14957   */\n      dup3\n        /* \"#utility.yul\":14921:14958   */\n      tag_78\n      jump\t// in\n    tag_280:\n        /* \"#utility.yul\":15023:15041   */\n      0xffffffffffffffff\n        /* \"#utility.yul\":15015:15021   */\n      dup2\n        /* \"#utility.yul\":15012:15042   */\n      gt\n        /* \"#utility.yul\":15009:15065   */\n      iszero\n      tag_281\n      jumpi\n        /* \"#utility.yul\":15045:15063   */\n      tag_282\n      tag_49\n      jump\t// in\n    tag_282:\n        /* \"#utility.yul\":15009:15065   */\n    tag_281:\n        /* \"#utility.yul\":15089:15127   */\n      tag_283\n        /* \"#utility.yul\":15121:15125   */\n      dup3\n        /* \"#utility.yul\":15115:15126   */\n      sload\n        /* \"#utility.yul\":15089:15127   */\n      tag_31\n      jump\t// in\n    tag_283:\n        /* \"#utility.yul\":15174:15241   */\n      tag_284\n        /* \"#utility.yul\":15234:15240   */\n      dup3\n        /* \"#utility.yul\":15226:15232   */\n      dup3\n        /* \"#utility.yul\":15220:15224   */\n      dup6\n        /* \"#utility.yul\":15174:15241   */\n      tag_120\n      jump\t// in\n    tag_284:\n        /* \"#utility.yul\":15268:15269   */\n      0x00\n        /* \"#utility.yul\":15292:15296   */\n      0x20\n        /* \"#utility.yul\":15279:15296   */\n      swap1\n      pop\n        /* \"#utility.yul\":15324:15326   */\n      0x1f\n        /* \"#utility.yul\":15316:15322   */\n      dup4\n        /* \"#utility.yul\":15313:15327   */\n      gt\n        /* \"#utility.yul\":15341:15342   */\n      0x01\n        /* \"#utility.yul\":15336:15954   */\n      dup2\n      eq\n      tag_286\n      jumpi\n        /* \"#utility.yul\":15998:15999   */\n      0x00\n        /* \"#utility.yul\":16015:16021   */\n      dup5\n        /* \"#utility.yul\":16012:16089   */\n      iszero\n      tag_287\n      jumpi\n        /* \"#utility.yul\":16064:16073   */\n      dup3\n        /* \"#utility.yul\":16059:16062   */\n      dup8\n        /* \"#utility.yul\":16055:16074   */\n      add\n        /* \"#utility.yul\":16049:16075   */\n      mload\n        /* \"#utility.yul\":16040:16075   */\n      swap1\n      pop\n        /* \"#utility.yul\":16012:16089   */\n    tag_287:\n        /* \"#utility.yul\":16115:16182   */\n      tag_288\n        /* \"#utility.yul\":16175:16181   */\n      dup6\n        /* \"#utility.yul\":16168:16173   */\n      dup3\n        /* \"#utility.yul\":16115:16182   */\n      tag_123\n      jump\t// in\n    tag_288:\n        /* \"#utility.yul\":16109:16113   */\n      dup7\n        /* \"#utility.yul\":16102:16183   */\n      sstore\n        /* \"#utility.yul\":15971:16193   */\n      pop\n        /* \"#utility.yul\":15306:16193   */\n      jump(tag_285)\n        /* \"#utility.yul\":15336:15954   */\n    tag_286:\n        /* \"#utility.yul\":15388:15392   */\n      0x1f\n        /* \"#utility.yul\":15384:15393   */\n      not\n        /* \"#utility.yul\":15376:15382   */\n      dup5\n        /* \"#utility.yul\":15372:15394   */\n      and\n        /* \"#utility.yul\":15422:15459   */\n      tag_289\n        /* \"#utility.yul\":15454:15458   */\n      dup7\n        /* \"#utility.yul\":15422:15459   */\n      tag_109\n      jump\t// in\n    tag_289:\n        /* \"#utility.yul\":15481:15482   */\n      0x00\n        /* \"#utility.yul\":15495:15703   */\n    tag_290:\n        /* \"#utility.yul\":15509:15516   */\n      dup3\n        /* \"#utility.yul\":15506:15507   */\n      dup2\n        /* \"#utility.yul\":15503:15517   */\n      lt\n        /* \"#utility.yul\":15495:15703   */\n      iszero\n      tag_292\n      jumpi\n        /* \"#utility.yul\":15588:15597   */\n      dup5\n        /* \"#utility.yul\":15583:15586   */\n      dup10\n        /* \"#utility.yul\":15579:15598   */\n      add\n        /* \"#utility.yul\":15573:15599   */\n      mload\n        /* \"#utility.yul\":15565:15571   */\n      dup3\n        /* \"#utility.yul\":15558:15600   */\n      sstore\n        /* \"#utility.yul\":15639:15640   */\n      0x01\n        /* \"#utility.yul\":15631:15637   */\n      dup3\n        /* \"#utility.yul\":15627:15641   */\n      add\n        /* \"#utility.yul\":15617:15641   */\n      swap2\n      pop\n        /* \"#utility.yul\":15686:15688   */\n      0x20\n        /* \"#utility.yul\":15675:15684   */\n      dup6\n        /* \"#utility.yul\":15671:15689   */\n      add\n        /* \"#utility.yul\":15658:15689   */\n      swap5\n      pop\n        /* \"#utility.yul\":15532:15536   */\n      0x20\n        /* \"#utility.yul\":15529:15530   */\n      dup2\n        /* \"#utility.yul\":15525:15537   */\n      add\n        /* \"#utility.yul\":15520:15537   */\n      swap1\n      pop\n        /* \"#utility.yul\":15495:15703   */\n      jump(tag_290)\n    tag_292:\n        /* \"#utility.yul\":15731:15737   */\n      dup7\n        /* \"#utility.yul\":15722:15729   */\n      dup4\n        /* \"#utility.yul\":15719:15738   */\n      lt\n        /* \"#utility.yul\":15716:15895   */\n      iszero\n      tag_293\n      jumpi\n        /* \"#utility.yul\":15789:15798   */\n      dup5\n        /* \"#utility.yul\":15784:15787   */\n      dup10\n        /* \"#utility.yul\":15780:15799   */\n      add\n        /* \"#utility.yul\":15774:15800   */\n      mload\n        /* \"#utility.yul\":15832:15880   */\n      tag_294\n        /* \"#utility.yul\":15874:15878   */\n      0x1f\n        /* \"#utility.yul\":15866:15872   */\n      dup10\n        /* \"#utility.yul\":15862:15879   */\n      and\n        /* \"#utility.yul\":15851:15860   */\n      dup3\n        /* \"#utility.yul\":15832:15880   */\n      tag_122\n      jump\t// in\n    tag_294:\n        /* \"#utility.yul\":15824:15830   */\n      dup4\n        /* \"#utility.yul\":15817:15881   */\n      sstore\n        /* \"#utility.yul\":15739:15895   */\n      pop\n        /* \"#utility.yul\":15716:15895   */\n    tag_293:\n        /* \"#utility.yul\":15941:15942   */\n      0x01\n        /* \"#utility.yul\":15937:15938   */\n      0x02\n        /* \"#utility.yul\":15929:15935   */\n      dup9\n        /* \"#utility.yul\":15925:15939   */\n      mul\n        /* \"#utility.yul\":15921:15943   */\n      add\n        /* \"#utility.yul\":15915:15919   */\n      dup9\n        /* \"#utility.yul\":15908:15944   */\n      sstore\n        /* \"#utility.yul\":15343:15954   */\n      pop\n      pop\n      pop\n        /* \"#utility.yul\":15306:16193   */\n    tag_285:\n      pop\n        /* \"#utility.yul\":14896:16199   */\n      pop\n      pop\n      pop\n        /* \"#utility.yul\":14804:16199   */\n      pop\n      pop\n      jump\t// out\n        /* \"#utility.yul\":16205:16385   */\n    tag_124:\n        /* \"#utility.yul\":16253:16330   */\n      0x4e487b7100000000000000000000000000000000000000000000000000000000\n        /* \"#utility.yul\":16250:16251   */\n      0x00\n        /* \"#utility.yul\":16243:16331   */\n      mstore\n        /* \"#utility.yul\":16350:16354   */\n      0x11\n        /* \"#utility.yul\":16347:16348   */\n      0x04\n        /* \"#utility.yul\":16340:16355   */\n      mstore\n        /* \"#utility.yul\":16374:16378   */\n      0x24\n        /* \"#utility.yul\":16371:16372   */\n      0x00\n        /* \"#utility.yul\":16364:16379   */\n      revert\n        /* \"#utility.yul\":16391:16624   */\n    tag_44:\n        /* \"#utility.yul\":16430:16433   */\n      0x00\n        /* \"#utility.yul\":16453:16477   */\n      tag_297\n        /* \"#utility.yul\":16471:16476   */\n      dup3\n        /* \"#utility.yul\":16453:16477   */\n      tag_75\n      jump\t// in\n    tag_297:\n        /* \"#utility.yul\":16444:16477   */\n      swap2\n      pop\n        /* \"#utility.yul\":16499:16565   */\n      0xffffffffffffffffffffffffffffffffffffffffffffffffffffffffffffffff\n        /* \"#utility.yul\":16492:16497   */\n      dup3\n        /* \"#utility.yul\":16489:16566   */\n      sub\n        /* \"#utility.yul\":16486:16589   */\n      tag_298\n      jumpi\n        /* \"#utility.yul\":16569:16587   */\n      tag_299\n      tag_124\n      jump\t// in\n    tag_299:\n        /* \"#utility.yul\":16486:16589   */\n    tag_298:\n        /* \"#utility.yul\":16616:16617   */\n      0x01\n        /* \"#utility.yul\":16609:16614   */\n      dup3\n        /* \"#utility.yul\":16605:16618   */\n      add\n        /* \"#utility.yul\":16598:16618   */\n      swap1\n      pop\n        /* \"#utility.yul\":16391:16624   */\n      swap2\n      swap1\n      pop\n      jump\t// out\n        /* \"#utility.yul\":16630:16810   */\n    tag_64:\n        /* \"#utility.yul\":16678:16755   */\n      0x4e487b7100000000000000000000000000000000000000000000000000000000\n        /* \"#utility.yul\":16675:16676   */\n      0x00\n        /* \"#utility.yul\":16668:16756   */\n      mstore\n        /* \"#utility.yul\":16775:16779   */\n      0x32\n        /* \"#utility.yul\":16772:16773   */\n      0x04\n        /* \"#utility.yul\":16765:16780   */\n      mstore\n        /* \"#utility.yul\":16799:16803   */\n      0x24\n        /* \"#utility.yul\":16796:16797   */\n      0x00\n        /* \"#utility.yul\":16789:16804   */\n      revert\n        /* \"#utility.yul\":16816:16991   */\n    tag_125:\n        /* \"#utility.yul\":16956:16983   */\n      0x496e76616c6964206e6577206f776e6572206164647265737300000000000000\n        /* \"#utility.yul\":16952:16953   */\n      0x00\n        /* \"#utility.yul\":16944:16950   */\n      dup3\n        /* \"#utility.yul\":16940:16954   */\n      add\n        /* \"#utility.yul\":16933:16984   */\n      mstore\n        /* \"#utility.yul\":16816:16991   */\n      pop\n      jump\t// out\n        /* \"#utility.yul\":16997:17363   */\n    tag_126:\n        /* \"#utility.yul\":17139:17142   */\n      0x00\n        /* \"#utility.yul\":17160:17227   */\n      tag_303\n        /* \"#utility.yul\":17224:17226   */\n      0x19\n        /* \"#utility.yul\":17219:17222   */\n      dup4\n        /* \"#utility.yul\":17160:17227   */\n      tag_79\n      jump\t// in\n    tag_303:\n        /* \"#utility.yul\":17153:17227   */\n      swap2\n      pop\n        /* \"#utility.yul\":17236:17329   */\n      tag_304\n        /* \"#utility.yul\":17325:17328   */\n      dup3\n        /* \"#utility.yul\":17236:17329   */\n      tag_125\n      jump\t// in\n    tag_304:\n        /* \"#utility.yul\":17354:17356   */\n      0x20\n        /* \"#utility.yul\":17349:17352   */\n      dup3\n        /* \"#utility.yul\":17345:17357   */\n      add\n        /* \"#utility.yul\":17338:17357   */\n      swap1\n      pop\n        /* \"#utility.yul\":16997:17363   */\n      swap2\n      swap1\n      pop\n      jump\t// out\n        /* \"#utility.yul\":17369:17788   */\n    tag_71:\n        /* \"#utility.yul\":17535:17539   */\n      0x00\n        /* \"#utility.yul\":17573:17575   */\n      0x20\n        /* \"#utility.yul\":17562:17571   */\n      dup3\n        /* \"#utility.yul\":17558:17576   */\n      add\n        /* \"#utility.yul\":17550:17576   */\n      swap1\n      pop\n        /* \"#utility.yul\":17622:17631   */\n      dup2\n        /* \"#utility.yul\":17616:17620   */\n      dup2\n        /* \"#utility.yul\":17612:17632   */\n      sub\n        /* \"#utility.yul\":17608:17609   */\n      0x00\n        /* \"#utility.yul\":17597:17606   */\n      dup4\n        /* \"#utility.yul\":17593:17610   */\n      add\n        /* \"#utility.yul\":17586:17633   */\n      mstore\n        /* \"#utility.yul\":17650:17781   */\n      tag_306\n        /* \"#utility.yul\":17776:17780   */\n      dup2\n        /* \"#utility.yul\":17650:17781   */\n      tag_126\n      jump\t// in\n    tag_306:\n        /* \"#utility.yul\":17642:17781   */\n      swap1\n      pop\n        /* \"#utility.yul\":17369:17788   */\n      swap2\n      swap1\n      pop\n      jump\t// out\n\n    auxdata: 0xa264697066735822122074e76ba80a654ce0728db293e44c48c0f21893ed3ae92eedde31968d54de286e64736f6c63430008170033\n}\n",
				"bytecode": {
					"linkReferences": {},
					"object": "60806040525f600155348015610013575f80fd5b50335f806101000a81548173ffffffffffffffffffffffffffffffffffffffff021916908373ffffffffffffffffffffffffffffffffffffffff160217905550610ea4806100605f395ff3fe608060405234801561000f575f80fd5b5060043610610055575f3560e01c80631253c5461461005957806362b8c735146100895780638da5cb5b146100a5578063da815b8e146100c3578063f2fde38b146100e1575b5f80fd5b610073600480360381019061006e919061059a565b6100fd565b604051610080919061064f565b60405180910390f35b6100a3600480360381019061009e919061079b565b610198565b005b6100ad610297565b6040516100ba9190610834565b60405180910390f35b6100cb6102ba565b6040516100d89190610999565b60405180910390f35b6100fb60048036038101906100f691906109e3565b610400565b005b6002602052805f5260405f205f91509050805461011990610a3b565b80601f016020809104026020016040519081016040528092919081815260200182805461014590610a3b565b80156101905780601f1061016757610100808354040283529160200191610190565b820191905f5260205f20905b81548152906001019060200180831161017357829003601f168201915b505050505081565b5f8054906101000a900473ffffffffffffffffffffffffffffffffffffffff1673ffffffffffffffffffffffffffffffffffffffff163373ffffffffffffffffffffffffffffffffffffffff1614610225576040517f08c379a000000000000000000000000000000000000000000000000000000000815260040161021c90610adb565b60405180910390fd5b8060025f8481526020019081526020015f2090816102439190610c96565b5060015f81548092919061025690610d92565b9190505550817faff9b744082235958643fec7fcd095092a1fc28ae6be37068c3bc43e0c0a8e958260405161028b919061064f565b60405180910390a25050565b5f8054906101000a900473ffffffffffffffffffffffffffffffffffffffff1681565b60605f60015467ffffffffffffffff8111156102d9576102d8610677565b5b60405190808252806020026020018201604052801561031257816020015b6102ff61053d565b8152602001906001900390816102f75790505b5090505f5b6001548110156103f857604051806040016040528082815260200160025f8481526020019081526020015f20805461034e90610a3b565b80601f016020809104026020016040519081016040528092919081815260200182805461037a90610a3b565b80156103c55780601f1061039c576101008083540402835291602001916103c5565b820191905f5260205f20905b8154815290600101906020018083116103a857829003601f168201915b50505050508152508282815181106103e0576103df610dd9565b5b60200260200101819052508080600101915050610317565b508091505090565b5f8054906101000a900473ffffffffffffffffffffffffffffffffffffffff1673ffffffffffffffffffffffffffffffffffffffff163373ffffffffffffffffffffffffffffffffffffffff161461048d576040517f08c379a000000000000000000000000000000000000000000000000000000000815260040161048490610adb565b60405180910390fd5b5f73ffffffffffffffffffffffffffffffffffffffff168173ffffffffffffffffffffffffffffffffffffffff16036104fb576040517f08c379a00000000000000000000000000000000000000000000000000000000081526004016104f290610e50565b60405180910390fd5b805f806101000a81548173ffffffffffffffffffffffffffffffffffffffff021916908373ffffffffffffffffffffffffffffffffffffffff16021790555050565b60405180604001604052805f8152602001606081525090565b5f604051905090565b5f80fd5b5f80fd5b5f819050919050565b61057981610567565b8114610583575f80fd5b50565b5f8135905061059481610570565b92915050565b5f602082840312156105af576105ae61055f565b5b5f6105bc84828501610586565b91505092915050565b5f81519050919050565b5f82825260208201905092915050565b5f5b838110156105fc5780820151818401526020810190506105e1565b5f8484015250505050565b5f601f19601f8301169050919050565b5f610621826105c5565b61062b81856105cf565b935061063b8185602086016105df565b61064481610607565b840191505092915050565b5f6020820190508181035f8301526106678184610617565b905092915050565b5f80fd5b5f80fd5b7f4e487b71000000000000000000000000000000000000000000000000000000005f52604160045260245ffd5b6106ad82610607565b810181811067ffffffffffffffff821117156106cc576106cb610677565b5b80604052505050565b5f6106de610556565b90506106ea82826106a4565b919050565b5f67ffffffffffffffff82111561070957610708610677565b5b61071282610607565b9050602081019050919050565b828183375f83830152505050565b5f61073f61073a846106ef565b6106d5565b90508281526020810184848401111561075b5761075a610673565b5b61076684828561071f565b509392505050565b5f82601f8301126107825761078161066f565b5b813561079284826020860161072d565b91505092915050565b5f80604083850312156107b1576107b061055f565b5b5f6107be85828601610586565b925050602083013567ffffffffffffffff8111156107df576107de610563565b5b6107eb8582860161076e565b9150509250929050565b5f73ffffffffffffffffffffffffffffffffffffffff82169050919050565b5f61081e826107f5565b9050919050565b61082e81610814565b82525050565b5f6020820190506108475f830184610825565b92915050565b5f81519050919050565b5f82825260208201905092915050565b5f819050602082019050919050565b61087f81610567565b82525050565b5f82825260208201905092915050565b5f61089f826105c5565b6108a98185610885565b93506108b98185602086016105df565b6108c281610607565b840191505092915050565b5f604083015f8301516108e25f860182610876565b50602083015184820360208601526108fa8282610895565b9150508091505092915050565b5f61091283836108cd565b905092915050565b5f602082019050919050565b5f6109308261084d565b61093a8185610857565b93508360208202850161094c85610867565b805f5b8581101561098757848403895281516109688582610907565b94506109738361091a565b925060208a0199505060018101905061094f565b50829750879550505050505092915050565b5f6020820190508181035f8301526109b18184610926565b905092915050565b6109c281610814565b81146109cc575f80fd5b50565b5f813590506109dd816109b9565b92915050565b5f602082840312156109f8576109f761055f565b5b5f610a05848285016109cf565b91505092915050565b7f4e487b71000000000000000000000000000000000000000000000000000000005f52602260045260245ffd5b5f6002820490506001821680610a5257607f821691505b602082108103610a6557610a64610a0e565b5b50919050565b7f4f6e6c79206f776e65722063616e2063616c6c20746869732066756e6374696f5f8201527f6e00000000000000000000000000000000000000000000000000000000000000602082015250565b5f610ac56021836105cf565b9150610ad082610a6b565b604082019050919050565b5f6020820190508181035f830152610af281610ab9565b9050919050565b5f819050815f5260205f209050919050565b5f6020601f8301049050919050565b5f82821b905092915050565b5f60088302610b557fffffffffffffffffffffffffffffffffffffffffffffffffffffffffffffffff82610b1a565b610b5f8683610b1a565b95508019841693508086168417925050509392505050565b5f819050919050565b5f610b9a610b95610b9084610567565b610b77565b610567565b9050919050565b5f819050919050565b610bb383610b80565b610bc7610bbf82610ba1565b848454610b26565b825550505050565b5f90565b610bdb610bcf565b610be6818484610baa565b505050565b5b81811015610c0957610bfe5f82610bd3565b600181019050610bec565b5050565b601f821115610c4e57610c1f81610af9565b610c2884610b0b565b81016020851015610c37578190505b610c4b610c4385610b0b565b830182610beb565b50505b505050565b5f82821c905092915050565b5f610c6e5f1984600802610c53565b1980831691505092915050565b5f610c868383610c5f565b9150826002028217905092915050565b610c9f826105c5565b67ffffffffffffffff811115610cb857610cb7610677565b5b610cc28254610a3b565b610ccd828285610c0d565b5f60209050601f831160018114610cfe575f8415610cec578287015190505b610cf68582610c7b565b865550610d5d565b601f198416610d0c86610af9565b5f5b82811015610d3357848901518255600182019150602085019450602081019050610d0e565b86831015610d505784890151610d4c601f891682610c5f565b8355505b6001600288020188555050505b505050505050565b7f4e487b71000000000000000000000000000000000000000000000000000000005f52601160045260245ffd5b5f610d9c82610567565b91507fffffffffffffffffffffffffffffffffffffffffffffffffffffffffffffffff8203610dce57610dcd610d65565b5b600182019050919050565b7f4e487b71000000000000000000000000000000000000000000000000000000005f52603260045260245ffd5b7f496e76616c6964206e6577206f776e65722061646472657373000000000000005f82015250565b5f610e3a6019836105cf565b9150610e4582610e06565b602082019050919050565b5f6020820190508181035f830152610e6781610e2e565b905091905056fea264697066735822122074e76ba80a654ce0728db293e44c48c0f21893ed3ae92eedde31968d54de286e64736f6c63430008170033",
					"opcodes": "PUSH1 0x80 PUSH1 0x40 MSTORE PUSH0 PUSH1 0x1 SSTORE CALLVALUE DUP1 ISZERO PUSH2 0x13 JUMPI PUSH0 DUP1 REVERT JUMPDEST POP CALLER PUSH0 DUP1 PUSH2 0x100 EXP DUP2 SLOAD DUP2 PUSH20 0xFFFFFFFFFFFFFFFFFFFFFFFFFFFFFFFFFFFFFFFF MUL NOT AND SWAP1 DUP4 PUSH20 0xFFFFFFFFFFFFFFFFFFFFFFFFFFFFFFFFFFFFFFFF AND MUL OR SWAP1 SSTORE POP PUSH2 0xEA4 DUP1 PUSH2 0x60 PUSH0 CODECOPY PUSH0 RETURN INVALID PUSH1 0x80 PUSH1 0x40 MSTORE CALLVALUE DUP1 ISZERO PUSH2 0xF JUMPI PUSH0 DUP1 REVERT JUMPDEST POP PUSH1 0x4 CALLDATASIZE LT PUSH2 0x55 JUMPI PUSH0 CALLDATALOAD PUSH1 0xE0 SHR DUP1 PUSH4 0x1253C546 EQ PUSH2 0x59 JUMPI DUP1 PUSH4 0x62B8C735 EQ PUSH2 0x89 JUMPI DUP1 PUSH4 0x8DA5CB5B EQ PUSH2 0xA5 JUMPI DUP1 PUSH4 0xDA815B8E EQ PUSH2 0xC3 JUMPI DUP1 PUSH4 0xF2FDE38B EQ PUSH2 0xE1 JUMPI JUMPDEST PUSH0 DUP1 REVERT JUMPDEST PUSH2 0x73 PUSH1 0x4 DUP1 CALLDATASIZE SUB DUP2 ADD SWAP1 PUSH2 0x6E SWAP2 SWAP1 PUSH2 0x59A JUMP JUMPDEST PUSH2 0xFD JUMP JUMPDEST PUSH1 0x40 MLOAD PUSH2 0x80 SWAP2 SWAP1 PUSH2 0x64F JUMP JUMPDEST PUSH1 0x40 MLOAD DUP1 SWAP2 SUB SWAP1 RETURN JUMPDEST PUSH2 0xA3 PUSH1 0x4 DUP1 CALLDATASIZE SUB DUP2 ADD SWAP1 PUSH2 0x9E SWAP2 SWAP1 PUSH2 0x79B JUMP JUMPDEST PUSH2 0x198 JUMP JUMPDEST STOP JUMPDEST PUSH2 0xAD PUSH2 0x297 JUMP JUMPDEST PUSH1 0x40 MLOAD PUSH2 0xBA SWAP2 SWAP1 PUSH2 0x834 JUMP JUMPDEST PUSH1 0x40 MLOAD DUP1 SWAP2 SUB SWAP1 RETURN JUMPDEST PUSH2 0xCB PUSH2 0x2BA JUMP JUMPDEST PUSH1 0x40 MLOAD PUSH2 0xD8 SWAP2 SWAP1 PUSH2 0x999 JUMP JUMPDEST PUSH1 0x40 MLOAD DUP1 SWAP2 SUB SWAP1 RETURN JUMPDEST PUSH2 0xFB PUSH1 0x4 DUP1 CALLDATASIZE SUB DUP2 ADD SWAP1 PUSH2 0xF6 SWAP2 SWAP1 PUSH2 0x9E3 JUMP JUMPDEST PUSH2 0x400 JUMP JUMPDEST STOP JUMPDEST PUSH1 0x2 PUSH1 0x20 MSTORE DUP1 PUSH0 MSTORE PUSH1 0x40 PUSH0 KECCAK256 PUSH0 SWAP2 POP SWAP1 POP DUP1 SLOAD PUSH2 0x119 SWAP1 PUSH2 0xA3B JUMP JUMPDEST DUP1 PUSH1 0x1F ADD PUSH1 0x20 DUP1 SWAP2 DIV MUL PUSH1 0x20 ADD PUSH1 0x40 MLOAD SWAP1 DUP2 ADD PUSH1 0x40 MSTORE DUP1 SWAP3 SWAP2 SWAP1 DUP2 DUP2 MSTORE PUSH1 0x20 ADD DUP3 DUP1 SLOAD PUSH2 0x145 SWAP1 PUSH2 0xA3B JUMP JUMPDEST DUP1 ISZERO PUSH2 0x190 JUMPI DUP1 PUSH1 0x1F LT PUSH2 0x167 JUMPI PUSH2 0x100 DUP1 DUP4 SLOAD DIV MUL DUP4 MSTORE SWAP2 PUSH1 0x20 ADD SWAP2 PUSH2 0x190 JUMP JUMPDEST DUP3 ADD SWAP2 SWAP1 PUSH0 MSTORE PUSH1 0x20 PUSH0 KECCAK256 SWAP1 JUMPDEST DUP2 SLOAD DUP2 MSTORE SWAP1 PUSH1 0x1 ADD SWAP1 PUSH1 0x20 ADD DUP1 DUP4 GT PUSH2 0x173 JUMPI DUP3 SWAP1 SUB PUSH1 0x1F AND DUP3 ADD SWAP2 JUMPDEST POP POP POP POP POP DUP2 JUMP JUMPDEST PUSH0 DUP1 SLOAD SWAP1 PUSH2 0x100 EXP SWAP1 DIV PUSH20 0xFFFFFFFFFFFFFFFFFFFFFFFFFFFFFFFFFFFFFFFF AND PUSH20 0xFFFFFFFFFFFFFFFFFFFFFFFFFFFFFFFFFFFFFFFF AND CALLER PUSH20 0xFFFFFFFFFFFFFFFFFFFFFFFFFFFFFFFFFFFFFFFF AND EQ PUSH2 0x225 JUMPI PUSH1 0x40 MLOAD PUSH32 0x8C379A000000000000000000000000000000000000000000000000000000000 DUP2 MSTORE PUSH1 0x4 ADD PUSH2 0x21C SWAP1 PUSH2 0xADB JUMP JUMPDEST PUSH1 0x40 MLOAD DUP1 SWAP2 SUB SWAP1 REVERT JUMPDEST DUP1 PUSH1 0x2 PUSH0 DUP5 DUP2 MSTORE PUSH1 0x20 ADD SWAP1 DUP2 MSTORE PUSH1 0x20 ADD PUSH0 KECCAK256 SWAP1 DUP2 PUSH2 0x243 SWAP2 SWAP1 PUSH2 0xC96 JUMP JUMPDEST POP PUSH1 0x1 PUSH0 DUP2 SLOAD DUP1 SWAP3 SWAP2 SWAP1 PUSH2 0x256 SWAP1 PUSH2 0xD92 JUMP JUMPDEST SWAP2 SWAP1 POP SSTORE POP DUP2 PUSH32 0xAFF9B744082235958643FEC7FCD095092A1FC28AE6BE37068C3BC43E0C0A8E95 DUP3 PUSH1 0x40 MLOAD PUSH2 0x28B SWAP2 SWAP1 PUSH2 0x64F JUMP JUMPDEST PUSH1 0x40 MLOAD DUP1 SWAP2 SUB SWAP1 LOG2 POP POP JUMP JUMPDEST PUSH0 DUP1 SLOAD SWAP1 PUSH2 0x100 EXP SWAP1 DIV PUSH20 0xFFFFFFFFFFFFFFFFFFFFFFFFFFFFFFFFFFFFFFFF AND DUP2 JUMP JUMPDEST PUSH1 0x60 PUSH0 PUSH1 0x1 SLOAD PUSH8 0xFFFFFFFFFFFFFFFF DUP2 GT ISZERO PUSH2 0x2D9 JUMPI PUSH2 0x2D8 PUSH2 0x677 JUMP JUMPDEST JUMPDEST PUSH1 0x40 MLOAD SWAP1 DUP1 DUP3 MSTORE DUP1 PUSH1 0x20 MUL PUSH1 0x20 ADD DUP3 ADD PUSH1 0x40 MSTORE DUP1 ISZERO PUSH2 0x312 JUMPI DUP2 PUSH1 0x20 ADD JUMPDEST PUSH2 0x2FF PUSH2 0x53D JUMP JUMPDEST DUP2 MSTORE PUSH1 0x20 ADD SWAP1 PUSH1 0x1 SWAP1 SUB SWAP1 DUP2 PUSH2 0x2F7 JUMPI SWAP1 POP JUMPDEST POP SWAP1 POP PUSH0 JUMPDEST PUSH1 0x1 SLOAD DUP2 LT ISZERO PUSH2 0x3F8 JUMPI PUSH1 0x40 MLOAD DUP1 PUSH1 0x40 ADD PUSH1 0x40 MSTORE DUP1 DUP3 DUP2 MSTORE PUSH1 0x20 ADD PUSH1 0x2 PUSH0 DUP5 DUP2 MSTORE PUSH1 0x20 ADD SWAP1 DUP2 MSTORE PUSH1 0x20 ADD PUSH0 KECCAK256 DUP1 SLOAD PUSH2 0x34E SWAP1 PUSH2 0xA3B JUMP JUMPDEST DUP1 PUSH1 0x1F ADD PUSH1 0x20 DUP1 SWAP2 DIV MUL PUSH1 0x20 ADD PUSH1 0x40 MLOAD SWAP1 DUP2 ADD PUSH1 0x40 MSTORE DUP1 SWAP3 SWAP2 SWAP1 DUP2 DUP2 MSTORE PUSH1 0x20 ADD DUP3 DUP1 SLOAD PUSH2 0x37A SWAP1 PUSH2 0xA3B JUMP JUMPDEST DUP1 ISZERO PUSH2 0x3C5 JUMPI DUP1 PUSH1 0x1F LT PUSH2 0x39C JUMPI PUSH2 0x100 DUP1 DUP4 SLOAD DIV MUL DUP4 MSTORE SWAP2 PUSH1 0x20 ADD SWAP2 PUSH2 0x3C5 JUMP JUMPDEST DUP3 ADD SWAP2 SWAP1 PUSH0 MSTORE PUSH1 0x20 PUSH0 KECCAK256 SWAP1 JUMPDEST DUP2 SLOAD DUP2 MSTORE SWAP1 PUSH1 0x1 ADD SWAP1 PUSH1 0x20 ADD DUP1 DUP4 GT PUSH2 0x3A8 JUMPI DUP3 SWAP1 SUB PUSH1 0x1F AND DUP3 ADD SWAP2 JUMPDEST POP POP POP POP POP DUP2 MSTORE POP DUP3 DUP3 DUP2 MLOAD DUP2 LT PUSH2 0x3E0 JUMPI PUSH2 0x3DF PUSH2 0xDD9 JUMP JUMPDEST JUMPDEST PUSH1 0x20 MUL PUSH1 0x20 ADD ADD DUP2 SWAP1 MSTORE POP DUP1 DUP1 PUSH1 0x1 ADD SWAP2 POP POP PUSH2 0x317 JUMP JUMPDEST POP DUP1 SWAP2 POP POP SWAP1 JUMP JUMPDEST PUSH0 DUP1 SLOAD SWAP1 PUSH2 0x100 EXP SWAP1 DIV PUSH20 0xFFFFFFFFFFFFFFFFFFFFFFFFFFFFFFFFFFFFFFFF AND PUSH20 0xFFFFFFFFFFFFFFFFFFFFFFFFFFFFFFFFFFFFFFFF AND CALLER PUSH20 0xFFFFFFFFFFFFFFFFFFFFFFFFFFFFFFFFFFFFFFFF AND EQ PUSH2 0x48D JUMPI PUSH1 0x40 MLOAD PUSH32 0x8C379A000000000000000000000000000000000000000000000000000000000 DUP2 MSTORE PUSH1 0x4 ADD PUSH2 0x484 SWAP1 PUSH2 0xADB JUMP JUMPDEST PUSH1 0x40 MLOAD DUP1 SWAP2 SUB SWAP1 REVERT JUMPDEST PUSH0 PUSH20 0xFFFFFFFFFFFFFFFFFFFFFFFFFFFFFFFFFFFFFFFF AND DUP2 PUSH20 0xFFFFFFFFFFFFFFFFFFFFFFFFFFFFFFFFFFFFFFFF AND SUB PUSH2 0x4FB JUMPI PUSH1 0x40 MLOAD PUSH32 0x8C379A000000000000000000000000000000000000000000000000000000000 DUP2 MSTORE PUSH1 0x4 ADD PUSH2 0x4F2 SWAP1 PUSH2 0xE50 JUMP JUMPDEST PUSH1 0x40 MLOAD DUP1 SWAP2 SUB SWAP1 REVERT JUMPDEST DUP1 PUSH0 DUP1 PUSH2 0x100 EXP DUP2 SLOAD DUP2 PUSH20 0xFFFFFFFFFFFFFFFFFFFFFFFFFFFFFFFFFFFFFFFF MUL NOT AND SWAP1 DUP4 PUSH20 0xFFFFFFFFFFFFFFFFFFFFFFFFFFFFFFFFFFFFFFFF AND MUL OR SWAP1 SSTORE POP POP JUMP JUMPDEST PUSH1 0x40 MLOAD DUP1 PUSH1 0x40 ADD PUSH1 0x40 MSTORE DUP1 PUSH0 DUP2 MSTORE PUSH1 0x20 ADD PUSH1 0x60 DUP2 MSTORE POP SWAP1 JUMP JUMPDEST PUSH0 PUSH1 0x40 MLOAD SWAP1 POP SWAP1 JUMP JUMPDEST PUSH0 DUP1 REVERT JUMPDEST PUSH0 DUP1 REVERT JUMPDEST PUSH0 DUP2 SWAP1 POP SWAP2 SWAP1 POP JUMP JUMPDEST PUSH2 0x579 DUP2 PUSH2 0x567 JUMP JUMPDEST DUP2 EQ PUSH2 0x583 JUMPI PUSH0 DUP1 REVERT JUMPDEST POP JUMP JUMPDEST PUSH0 DUP2 CALLDATALOAD SWAP1 POP PUSH2 0x594 DUP2 PUSH2 0x570 JUMP JUMPDEST SWAP3 SWAP2 POP POP JUMP JUMPDEST PUSH0 PUSH1 0x20 DUP3 DUP5 SUB SLT ISZERO PUSH2 0x5AF JUMPI PUSH2 0x5AE PUSH2 0x55F JUMP JUMPDEST JUMPDEST PUSH0 PUSH2 0x5BC DUP5 DUP3 DUP6 ADD PUSH2 0x586 JUMP JUMPDEST SWAP2 POP POP SWAP3 SWAP2 POP POP JUMP JUMPDEST PUSH0 DUP2 MLOAD SWAP1 POP SWAP2 SWAP1 POP JUMP JUMPDEST PUSH0 DUP3 DUP3 MSTORE PUSH1 0x20 DUP3 ADD SWAP1 POP SWAP3 SWAP2 POP POP JUMP JUMPDEST PUSH0 JUMPDEST DUP4 DUP2 LT ISZERO PUSH2 0x5FC JUMPI DUP1 DUP3 ADD MLOAD DUP2 DUP5 ADD MSTORE PUSH1 0x20 DUP2 ADD SWAP1 POP PUSH2 0x5E1 JUMP JUMPDEST PUSH0 DUP5 DUP5 ADD MSTORE POP POP POP POP JUMP JUMPDEST PUSH0 PUSH1 0x1F NOT PUSH1 0x1F DUP4 ADD AND SWAP1 POP SWAP2 SWAP1 POP JUMP JUMPDEST PUSH0 PUSH2 0x621 DUP3 PUSH2 0x5C5 JUMP JUMPDEST PUSH2 0x62B DUP2 DUP6 PUSH2 0x5CF JUMP JUMPDEST SWAP4 POP PUSH2 0x63B DUP2 DUP6 PUSH1 0x20 DUP7 ADD PUSH2 0x5DF JUMP JUMPDEST PUSH2 0x644 DUP2 PUSH2 0x607 JUMP JUMPDEST DUP5 ADD SWAP2 POP POP SWAP3 SWAP2 POP POP JUMP JUMPDEST PUSH0 PUSH1 0x20 DUP3 ADD SWAP1 POP DUP2 DUP2 SUB PUSH0 DUP4 ADD MSTORE PUSH2 0x667 DUP2 DUP5 PUSH2 0x617 JUMP JUMPDEST SWAP1 POP SWAP3 SWAP2 POP POP JUMP JUMPDEST PUSH0 DUP1 REVERT JUMPDEST PUSH0 DUP1 REVERT JUMPDEST PUSH32 0x4E487B7100000000000000000000000000000000000000000000000000000000 PUSH0 MSTORE PUSH1 0x41 PUSH1 0x4 MSTORE PUSH1 0x24 PUSH0 REVERT JUMPDEST PUSH2 0x6AD DUP3 PUSH2 0x607 JUMP JUMPDEST DUP2 ADD DUP2 DUP2 LT PUSH8 0xFFFFFFFFFFFFFFFF DUP3 GT OR ISZERO PUSH2 0x6CC JUMPI PUSH2 0x6CB PUSH2 0x677 JUMP JUMPDEST JUMPDEST DUP1 PUSH1 0x40 MSTORE POP POP POP JUMP JUMPDEST PUSH0 PUSH2 0x6DE PUSH2 0x556 JUMP JUMPDEST SWAP1 POP PUSH2 0x6EA DUP3 DUP3 PUSH2 0x6A4 JUMP JUMPDEST SWAP2 SWAP1 POP JUMP JUMPDEST PUSH0 PUSH8 0xFFFFFFFFFFFFFFFF DUP3 GT ISZERO PUSH2 0x709 JUMPI PUSH2 0x708 PUSH2 0x677 JUMP JUMPDEST JUMPDEST PUSH2 0x712 DUP3 PUSH2 0x607 JUMP JUMPDEST SWAP1 POP PUSH1 0x20 DUP2 ADD SWAP1 POP SWAP2 SWAP1 POP JUMP JUMPDEST DUP3 DUP2 DUP4 CALLDATACOPY PUSH0 DUP4 DUP4 ADD MSTORE POP POP POP JUMP JUMPDEST PUSH0 PUSH2 0x73F PUSH2 0x73A DUP5 PUSH2 0x6EF JUMP JUMPDEST PUSH2 0x6D5 JUMP JUMPDEST SWAP1 POP DUP3 DUP2 MSTORE PUSH1 0x20 DUP2 ADD DUP5 DUP5 DUP5 ADD GT ISZERO PUSH2 0x75B JUMPI PUSH2 0x75A PUSH2 0x673 JUMP JUMPDEST JUMPDEST PUSH2 0x766 DUP5 DUP3 DUP6 PUSH2 0x71F JUMP JUMPDEST POP SWAP4 SWAP3 POP POP POP JUMP JUMPDEST PUSH0 DUP3 PUSH1 0x1F DUP4 ADD SLT PUSH2 0x782 JUMPI PUSH2 0x781 PUSH2 0x66F JUMP JUMPDEST JUMPDEST DUP2 CALLDATALOAD PUSH2 0x792 DUP5 DUP3 PUSH1 0x20 DUP7 ADD PUSH2 0x72D JUMP JUMPDEST SWAP2 POP POP SWAP3 SWAP2 POP POP JUMP JUMPDEST PUSH0 DUP1 PUSH1 0x40 DUP4 DUP6 SUB SLT ISZERO PUSH2 0x7B1 JUMPI PUSH2 0x7B0 PUSH2 0x55F JUMP JUMPDEST JUMPDEST PUSH0 PUSH2 0x7BE DUP6 DUP3 DUP7 ADD PUSH2 0x586 JUMP JUMPDEST SWAP3 POP POP PUSH1 0x20 DUP4 ADD CALLDATALOAD PUSH8 0xFFFFFFFFFFFFFFFF DUP2 GT ISZERO PUSH2 0x7DF JUMPI PUSH2 0x7DE PUSH2 0x563 JUMP JUMPDEST JUMPDEST PUSH2 0x7EB DUP6 DUP3 DUP7 ADD PUSH2 0x76E JUMP JUMPDEST SWAP2 POP POP SWAP3 POP SWAP3 SWAP1 POP JUMP JUMPDEST PUSH0 PUSH20 0xFFFFFFFFFFFFFFFFFFFFFFFFFFFFFFFFFFFFFFFF DUP3 AND SWAP1 POP SWAP2 SWAP1 POP JUMP JUMPDEST PUSH0 PUSH2 0x81E DUP3 PUSH2 0x7F5 JUMP JUMPDEST SWAP1 POP SWAP2 SWAP1 POP JUMP JUMPDEST PUSH2 0x82E DUP2 PUSH2 0x814 JUMP JUMPDEST DUP3 MSTORE POP POP JUMP JUMPDEST PUSH0 PUSH1 0x20 DUP3 ADD SWAP1 POP PUSH2 0x847 PUSH0 DUP4 ADD DUP5 PUSH2 0x825 JUMP JUMPDEST SWAP3 SWAP2 POP POP JUMP JUMPDEST PUSH0 DUP2 MLOAD SWAP1 POP SWAP2 SWAP1 POP JUMP JUMPDEST PUSH0 DUP3 DUP3 MSTORE PUSH1 0x20 DUP3 ADD SWAP1 POP SWAP3 SWAP2 POP POP JUMP JUMPDEST PUSH0 DUP2 SWAP1 POP PUSH1 0x20 DUP3 ADD SWAP1 POP SWAP2 SWAP1 POP JUMP JUMPDEST PUSH2 0x87F DUP2 PUSH2 0x567 JUMP JUMPDEST DUP3 MSTORE POP POP JUMP JUMPDEST PUSH0 DUP3 DUP3 MSTORE PUSH1 0x20 DUP3 ADD SWAP1 POP SWAP3 SWAP2 POP POP JUMP JUMPDEST PUSH0 PUSH2 0x89F DUP3 PUSH2 0x5C5 JUMP JUMPDEST PUSH2 0x8A9 DUP2 DUP6 PUSH2 0x885 JUMP JUMPDEST SWAP4 POP PUSH2 0x8B9 DUP2 DUP6 PUSH1 0x20 DUP7 ADD PUSH2 0x5DF JUMP JUMPDEST PUSH2 0x8C2 DUP2 PUSH2 0x607 JUMP JUMPDEST DUP5 ADD SWAP2 POP POP SWAP3 SWAP2 POP POP JUMP JUMPDEST PUSH0 PUSH1 0x40 DUP4 ADD PUSH0 DUP4 ADD MLOAD PUSH2 0x8E2 PUSH0 DUP7 ADD DUP3 PUSH2 0x876 JUMP JUMPDEST POP PUSH1 0x20 DUP4 ADD MLOAD DUP5 DUP3 SUB PUSH1 0x20 DUP7 ADD MSTORE PUSH2 0x8FA DUP3 DUP3 PUSH2 0x895 JUMP JUMPDEST SWAP2 POP POP DUP1 SWAP2 POP POP SWAP3 SWAP2 POP POP JUMP JUMPDEST PUSH0 PUSH2 0x912 DUP4 DUP4 PUSH2 0x8CD JUMP JUMPDEST SWAP1 POP SWAP3 SWAP2 POP POP JUMP JUMPDEST PUSH0 PUSH1 0x20 DUP3 ADD SWAP1 POP SWAP2 SWAP1 POP JUMP JUMPDEST PUSH0 PUSH2 0x930 DUP3 PUSH2 0x84D JUMP JUMPDEST PUSH2 0x93A DUP2 DUP6 PUSH2 0x857 JUMP JUMPDEST SWAP4 POP DUP4 PUSH1 0x20 DUP3 MUL DUP6 ADD PUSH2 0x94C DUP6 PUSH2 0x867 JUMP JUMPDEST DUP1 PUSH0 JUMPDEST DUP6 DUP2 LT ISZERO PUSH2 0x987 JUMPI DUP5 DUP5 SUB DUP10 MSTORE DUP2 MLOAD PUSH2 0x968 DUP6 DUP3 PUSH2 0x907 JUMP JUMPDEST SWAP5 POP PUSH2 0x973 DUP4 PUSH2 0x91A JUMP JUMPDEST SWAP3 POP PUSH1 0x20 DUP11 ADD SWAP10 POP POP PUSH1 0x1 DUP2 ADD SWAP1 POP PUSH2 0x94F JUMP JUMPDEST POP DUP3 SWAP8 POP DUP8 SWAP6 POP POP POP POP POP POP SWAP3 SWAP2 POP POP JUMP JUMPDEST PUSH0 PUSH1 0x20 DUP3 ADD SWAP1 POP DUP2 DUP2 SUB PUSH0 DUP4 ADD MSTORE PUSH2 0x9B1 DUP2 DUP5 PUSH2 0x926 JUMP JUMPDEST SWAP1 POP SWAP3 SWAP2 POP POP JUMP JUMPDEST PUSH2 0x9C2 DUP2 PUSH2 0x814 JUMP JUMPDEST DUP2 EQ PUSH2 0x9CC JUMPI PUSH0 DUP1 REVERT JUMPDEST POP JUMP JUMPDEST PUSH0 DUP2 CALLDATALOAD SWAP1 POP PUSH2 0x9DD DUP2 PUSH2 0x9B9 JUMP JUMPDEST SWAP3 SWAP2 POP POP JUMP JUMPDEST PUSH0 PUSH1 0x20 DUP3 DUP5 SUB SLT ISZERO PUSH2 0x9F8 JUMPI PUSH2 0x9F7 PUSH2 0x55F JUMP JUMPDEST JUMPDEST PUSH0 PUSH2 0xA05 DUP5 DUP3 DUP6 ADD PUSH2 0x9CF JUMP JUMPDEST SWAP2 POP POP SWAP3 SWAP2 POP POP JUMP JUMPDEST PUSH32 0x4E487B7100000000000000000000000000000000000000000000000000000000 PUSH0 MSTORE PUSH1 0x22 PUSH1 0x4 MSTORE PUSH1 0x24 PUSH0 REVERT JUMPDEST PUSH0 PUSH1 0x2 DUP3 DIV SWAP1 POP PUSH1 0x1 DUP3 AND DUP1 PUSH2 0xA52 JUMPI PUSH1 0x7F DUP3 AND SWAP2 POP JUMPDEST PUSH1 0x20 DUP3 LT DUP2 SUB PUSH2 0xA65 JUMPI PUSH2 0xA64 PUSH2 0xA0E JUMP JUMPDEST JUMPDEST POP SWAP2 SWAP1 POP JUMP JUMPDEST PUSH32 0x4F6E6C79206F776E65722063616E2063616C6C20746869732066756E6374696F PUSH0 DUP3 ADD MSTORE PUSH32 0x6E00000000000000000000000000000000000000000000000000000000000000 PUSH1 0x20 DUP3 ADD MSTORE POP JUMP JUMPDEST PUSH0 PUSH2 0xAC5 PUSH1 0x21 DUP4 PUSH2 0x5CF JUMP JUMPDEST SWAP2 POP PUSH2 0xAD0 DUP3 PUSH2 0xA6B JUMP JUMPDEST PUSH1 0x40 DUP3 ADD SWAP1 POP SWAP2 SWAP1 POP JUMP JUMPDEST PUSH0 PUSH1 0x20 DUP3 ADD SWAP1 POP DUP2 DUP2 SUB PUSH0 DUP4 ADD MSTORE PUSH2 0xAF2 DUP2 PUSH2 0xAB9 JUMP JUMPDEST SWAP1 POP SWAP2 SWAP1 POP JUMP JUMPDEST PUSH0 DUP2 SWAP1 POP DUP2 PUSH0 MSTORE PUSH1 0x20 PUSH0 KECCAK256 SWAP1 POP SWAP2 SWAP1 POP JUMP JUMPDEST PUSH0 PUSH1 0x20 PUSH1 0x1F DUP4 ADD DIV SWAP1 POP SWAP2 SWAP1 POP JUMP JUMPDEST PUSH0 DUP3 DUP3 SHL SWAP1 POP SWAP3 SWAP2 POP POP JUMP JUMPDEST PUSH0 PUSH1 0x8 DUP4 MUL PUSH2 0xB55 PUSH32 0xFFFFFFFFFFFFFFFFFFFFFFFFFFFFFFFFFFFFFFFFFFFFFFFFFFFFFFFFFFFFFFFF DUP3 PUSH2 0xB1A JUMP JUMPDEST PUSH2 0xB5F DUP7 DUP4 PUSH2 0xB1A JUMP JUMPDEST SWAP6 POP DUP1 NOT DUP5 AND SWAP4 POP DUP1 DUP7 AND DUP5 OR SWAP3 POP POP POP SWAP4 SWAP3 POP POP POP JUMP JUMPDEST PUSH0 DUP2 SWAP1 POP SWAP2 SWAP1 POP JUMP JUMPDEST PUSH0 PUSH2 0xB9A PUSH2 0xB95 PUSH2 0xB90 DUP5 PUSH2 0x567 JUMP JUMPDEST PUSH2 0xB77 JUMP JUMPDEST PUSH2 0x567 JUMP JUMPDEST SWAP1 POP SWAP2 SWAP1 POP JUMP JUMPDEST PUSH0 DUP2 SWAP1 POP SWAP2 SWAP1 POP JUMP JUMPDEST PUSH2 0xBB3 DUP4 PUSH2 0xB80 JUMP JUMPDEST PUSH2 0xBC7 PUSH2 0xBBF DUP3 PUSH2 0xBA1 JUMP JUMPDEST DUP5 DUP5 SLOAD PUSH2 0xB26 JUMP JUMPDEST DUP3 SSTORE POP POP POP POP JUMP JUMPDEST PUSH0 SWAP1 JUMP JUMPDEST PUSH2 0xBDB PUSH2 0xBCF JUMP JUMPDEST PUSH2 0xBE6 DUP2 DUP5 DUP5 PUSH2 0xBAA JUMP JUMPDEST POP POP POP JUMP JUMPDEST JUMPDEST DUP2 DUP2 LT ISZERO PUSH2 0xC09 JUMPI PUSH2 0xBFE PUSH0 DUP3 PUSH2 0xBD3 JUMP JUMPDEST PUSH1 0x1 DUP2 ADD SWAP1 POP PUSH2 0xBEC JUMP JUMPDEST POP POP JUMP JUMPDEST PUSH1 0x1F DUP3 GT ISZERO PUSH2 0xC4E JUMPI PUSH2 0xC1F DUP2 PUSH2 0xAF9 JUMP JUMPDEST PUSH2 0xC28 DUP5 PUSH2 0xB0B JUMP JUMPDEST DUP2 ADD PUSH1 0x20 DUP6 LT ISZERO PUSH2 0xC37 JUMPI DUP2 SWAP1 POP JUMPDEST PUSH2 0xC4B PUSH2 0xC43 DUP6 PUSH2 0xB0B JUMP JUMPDEST DUP4 ADD DUP3 PUSH2 0xBEB JUMP JUMPDEST POP POP JUMPDEST POP POP POP JUMP JUMPDEST PUSH0 DUP3 DUP3 SHR SWAP1 POP SWAP3 SWAP2 POP POP JUMP JUMPDEST PUSH0 PUSH2 0xC6E PUSH0 NOT DUP5 PUSH1 0x8 MUL PUSH2 0xC53 JUMP JUMPDEST NOT DUP1 DUP4 AND SWAP2 POP POP SWAP3 SWAP2 POP POP JUMP JUMPDEST PUSH0 PUSH2 0xC86 DUP4 DUP4 PUSH2 0xC5F JUMP JUMPDEST SWAP2 POP DUP3 PUSH1 0x2 MUL DUP3 OR SWAP1 POP SWAP3 SWAP2 POP POP JUMP JUMPDEST PUSH2 0xC9F DUP3 PUSH2 0x5C5 JUMP JUMPDEST PUSH8 0xFFFFFFFFFFFFFFFF DUP2 GT ISZERO PUSH2 0xCB8 JUMPI PUSH2 0xCB7 PUSH2 0x677 JUMP JUMPDEST JUMPDEST PUSH2 0xCC2 DUP3 SLOAD PUSH2 0xA3B JUMP JUMPDEST PUSH2 0xCCD DUP3 DUP3 DUP6 PUSH2 0xC0D JUMP JUMPDEST PUSH0 PUSH1 0x20 SWAP1 POP PUSH1 0x1F DUP4 GT PUSH1 0x1 DUP2 EQ PUSH2 0xCFE JUMPI PUSH0 DUP5 ISZERO PUSH2 0xCEC JUMPI DUP3 DUP8 ADD MLOAD SWAP1 POP JUMPDEST PUSH2 0xCF6 DUP6 DUP3 PUSH2 0xC7B JUMP JUMPDEST DUP7 SSTORE POP PUSH2 0xD5D JUMP JUMPDEST PUSH1 0x1F NOT DUP5 AND PUSH2 0xD0C DUP7 PUSH2 0xAF9 JUMP JUMPDEST PUSH0 JUMPDEST DUP3 DUP2 LT ISZERO PUSH2 0xD33 JUMPI DUP5 DUP10 ADD MLOAD DUP3 SSTORE PUSH1 0x1 DUP3 ADD SWAP2 POP PUSH1 0x20 DUP6 ADD SWAP5 POP PUSH1 0x20 DUP2 ADD SWAP1 POP PUSH2 0xD0E JUMP JUMPDEST DUP7 DUP4 LT ISZERO PUSH2 0xD50 JUMPI DUP5 DUP10 ADD MLOAD PUSH2 0xD4C PUSH1 0x1F DUP10 AND DUP3 PUSH2 0xC5F JUMP JUMPDEST DUP4 SSTORE POP JUMPDEST PUSH1 0x1 PUSH1 0x2 DUP9 MUL ADD DUP9 SSTORE POP POP POP JUMPDEST POP POP POP POP POP POP JUMP JUMPDEST PUSH32 0x4E487B7100000000000000000000000000000000000000000000000000000000 PUSH0 MSTORE PUSH1 0x11 PUSH1 0x4 MSTORE PUSH1 0x24 PUSH0 REVERT JUMPDEST PUSH0 PUSH2 0xD9C DUP3 PUSH2 0x567 JUMP JUMPDEST SWAP2 POP PUSH32 0xFFFFFFFFFFFFFFFFFFFFFFFFFFFFFFFFFFFFFFFFFFFFFFFFFFFFFFFFFFFFFFFF DUP3 SUB PUSH2 0xDCE JUMPI PUSH2 0xDCD PUSH2 0xD65 JUMP JUMPDEST JUMPDEST PUSH1 0x1 DUP3 ADD SWAP1 POP SWAP2 SWAP1 POP JUMP JUMPDEST PUSH32 0x4E487B7100000000000000000000000000000000000000000000000000000000 PUSH0 MSTORE PUSH1 0x32 PUSH1 0x4 MSTORE PUSH1 0x24 PUSH0 REVERT JUMPDEST PUSH32 0x496E76616C6964206E6577206F776E6572206164647265737300000000000000 PUSH0 DUP3 ADD MSTORE POP JUMP JUMPDEST PUSH0 PUSH2 0xE3A PUSH1 0x19 DUP4 PUSH2 0x5CF JUMP JUMPDEST SWAP2 POP PUSH2 0xE45 DUP3 PUSH2 0xE06 JUMP JUMPDEST PUSH1 0x20 DUP3 ADD SWAP1 POP SWAP2 SWAP1 POP JUMP JUMPDEST PUSH0 PUSH1 0x20 DUP3 ADD SWAP1 POP DUP2 DUP2 SUB PUSH0 DUP4 ADD MSTORE PUSH2 0xE67 DUP2 PUSH2 0xE2E JUMP JUMPDEST SWAP1 POP SWAP2 SWAP1 POP JUMP INVALID LOG2 PUSH5 0x6970667358 0x22 SLT KECCAK256 PUSH21 0xE76BA80A654CE0728DB293E44C48C0F21893ED3AE9 0x2E 0xED 0xDE BALANCE SWAP7 DUP14 SLOAD 0xDE 0x28 PUSH15 0x64736F6C6343000817003300000000 "
				},
				"gasEstimates": {
					"creation": {
						"codeDepositCost": "749600",
						"executionCost": "30054",
						"totalCost": "779654"
					},
					"external": {
						"getAllURIs()": "infinite",
						"owner()": "2527",
						"pushURI(uint256,string)": "infinite",
						"transferOwnership(address)": "26981",
						"uris(uint256)": "infinite"
					}
				},
				"methodIdentifiers": {
					"getAllURIs()": "da815b8e",
					"owner()": "8da5cb5b",
					"pushURI(uint256,string)": "62b8c735",
					"transferOwnership(address)": "f2fde38b",
					"uris(uint256)": "1253c546"
				}
			},
			"storageLayout": {
				"storage": [
					{
						"astId": 3,
						"contract": "contracts/NFTCollection.sol:NFTCollection",
						"label": "owner",
						"offset": 0,
						"slot": "0",
						"type": "t_address"
					},
					{
						"astId": 6,
						"contract": "contracts/NFTCollection.sol:NFTCollection",
						"label": "totalURIs",
						"offset": 0,
						"slot": "1",
						"type": "t_uint256"
					},
					{
						"astId": 15,
						"contract": "contracts/NFTCollection.sol:NFTCollection",
						"label": "uris",
						"offset": 0,
						"slot": "2",
						"type": "t_mapping(t_uint256,t_string_storage)"
					}
				],
				"types": {
					"t_address": {
						"encoding": "inplace",
						"label": "address",
						"numberOfBytes": "20"
					},
					"t_mapping(t_uint256,t_string_storage)": {
						"encoding": "mapping",
						"key": "t_uint256",
						"label": "mapping(uint256 => string)",
						"numberOfBytes": "32",
						"value": "t_string_storage"
					},
					"t_string_storage": {
						"encoding": "bytes",
						"label": "string",
						"numberOfBytes": "32"
					},
					"t_uint256": {
						"encoding": "inplace",
						"label": "uint256",
						"numberOfBytes": "32"
					}
				}
			},
			"userdoc": {
				"kind": "user",
				"methods": {},
				"version": 1
			}
		}
	}
}